:020000040800F2
:10000000381D002045010008C52100087D1D00089D
:100010001B210008710600083F4100080000000095
:10002000000000000000000000000000D5280008CB
:1000300009070008000000004925000831290008D0
:100040005F0100085F0100085F0100085F01000810
:100050005F0100085F0100085F0100085F01000800
:100060005F0100085F0100085F0100085F010008F0
:100070005F0100085F0100085F0100085F010008E0
:100080005F0100085F0100088D0400085F0100089F
:10009000593F00085F0100085F0100085F01000888
:1000A0005F0100085F0100085F0100085F010008B0
:1000B000092A00081D2A00085F0100085F010008E6
:1000C0005F0100085F0100085F0100085F01000890
:1000D0005F0100085F0100085F0100085F01000880
:1000E0000B0700085F0100085F0100085F010008BE
:1000F0005F0100085F0100085F0100085F01000860
:100100005F0100085F0100085F0100085F0100084F
:100110005F0100085F0100085F0100085F0100083F
:100120005F0100085F0100085F0100085F0100082F
:10013000DFF80CD000F05EF9004800477544000875
:10014000381D00200648804706480047FEE7FEE7C6
:10015000FEE7FEE7FEE7FEE7FEE7FEE7FEE7FEE777
:10016000C129000831010008202A04DB203A21FAC5
:1001700002F00021704721FA02F3D040C2F12002C0
:10018000914008431946704740EA01039B0703D09A
:1001900009E008C9121F08C0042AFAD203E011F8C6
:1001A000013B00F8013B521EF9D27047D2B201E088
:1001B00000F8012B491EFBD270470022F6E710B56C
:1001C00013460A4604461946FFF7F0FF204610BDC5
:1001D000421E12F8013F002BFBD111F8013B02F83F
:1001E000013B002BF9D17047421C10F8011B00297C
:1001F000FBD1801A7047034611F8012B00F8012B40
:10020000002AF9D1184670472DE9FE4F81EA030410
:1002100004F0004421F0004100944FF0000B23F063
:10022000004350EA01045ED052EA03045BD0C3F3FA
:100230000A54C1F30A552C44A4F2F3340194A0FBF0
:100240000254C1F3130141F48011C3F3130343F4C7
:10025000801301FB024400FB034E840A970A44EA20
:10026000815447EA8357A4FB076802958D0A05FB72
:1002700007854FEA932C04FB0C542705029D4FEA97
:10028000065847EA1637B5EB08056EEB070C870EE4
:10029000920E47EA811742EA8312A7FB0201B6EBEE
:1002A0000B0164EB00042B0D43EA0C335E1844EBA6
:1002B0001C50DA465146E7FB0201C5F313044FEA2E
:1002C0000B3343EA14534FEA0432019C43EA06031A
:1002D000A4F10C040294009CCDE900B400F03BF8BA
:1002E00003B0BDE8F08F00200146F9E70EB540F2FB
:1002F000334102910021CDE900110A460B4600F07E
:100300002AF803B000BDC1F30A5210B5C1F31301BE
:1003100040F2FF3341F480119A4201DA002010BD0F
:1003200040F233439A42A2F2334203DC5242FFF7D7
:100330001BFF10BD904010BD10B5141E73F10004DA
:1003400008DA401C41F1000192185B411A4301D1C7
:1003500020F0010010BD2DE9F04D92469B4611B1F1
:10036000B1FA81F202E0B0FA80F22032904600F059
:1003700053F804460F4640EA0A0041EA0B0153468F
:100380005A46084313D0114653EA010019D0C8F168
:1003900040025046FFF7E8FE05460E4650465946D5
:1003A000424600F039F8084305D0012004E0204619
:1003B0003946BDE8F08D0020054346EAE0762C433F
:1003C00037430A986305E40AA0EB08000022FD0AFF
:1003D00044EA47540A3002D500200146E9E7010506
:1003E00010196941DDE9084500196941BDE8F04D82
:1003F000A2E70000064C074D06E0E06840F001036C
:1004000094E8070098471034AC42F6D3FFF794FE07
:100410002C4500084C450008202A04DB203A00FA4D
:1004200002F1002070479140C2F1200320FA03F34B
:1004300019439040704770B58C1810F8015B15F0A7
:10044000070301D110F8013B2A1106D110F8012B46
:1004500003E010F8016B01F8016B5B1EF9D12B076B
:1004600005D40023521E0DD401F8013BFAE710F821
:10047000013BCB1A921C03E013F8015B01F8015B0E
:10048000521EF9D5A142D8D3002070BD10B5034843
:1004900000F0D2F9BDE8104000F068B81004002068
:1004A00070B5044600688168C943C9071CD18168DA
:1004B00021F00101816000F07FFC05460FE000BFE4
:1004C00000F07AFC401B022809D9A06A40F0100015
:1004D000A062E06A40F00100E062012070BD206887
:1004E0008068C043C007EBD0002070BDF8B500267F
:1004F0000446009600688168C943C90728D081680E
:1005000041F001018160134813490068B0FBF1F02C
:1005100000E0401E00900028FBD100F04DFC054695
:1005200011E000BF00F048FC401B02280BD9A06A74
:1005300040F01000A062E06A40F00100E06284F840
:1005400024600120F8BD20688068C043C007E9D15D
:100550000020F8BDAC00002040420F0002490020FE
:10056000087000F02FB800000000002070B5134C98
:100570002046A178808804F1080502290FD208B12D
:10058000012808D10E4800F054F9A17825F811008F
:100590000B4800F081FAA078401CA07070BD08B133
:1005A000012803D1064800F044F9A88001202070FA
:1005B000A088E080BDE8704000F004B80000002092
:1005C000100400200348002141708170024800F0AF
:1005D000C9BA0000000000201004002000B58DB052
:1005E00034216846FFF7E9FD0D490878012812D14A
:1005F0000020087001F10800C988028843888088BB
:100600001A4410440322B0FBF2F080B229B1012950
:1006100001D102F085FA0DB000BD02F05BF8FAE7F7
:1006200000000020FEB5104D04466878012802D075
:10063000FFF7C8FF0CB10020FEBD002401260220F8
:100640000094CDE901606946084800F073F8064857
:10065000AC800830AC70048044808480034800F093
:100660001BFA6E700120FEBD000000201004002067
:10067000FEE700207047002070470000044900207A
:10068000D1F81812D1F81412002900D001207047B7
:10069000C004002010B500220449054802F0C2FB46
:1006A0000449034802F0B8FB002010BD4C130020A1
:1006B000C0040020640F002070B50D4604460146BA
:1006C000054802F0A9FB044802F08AFB297820467D
:1006D00003F0DAF9002070BDC0040020094A10B50B
:1006E000D2F81822D2F814220AB1012010BD0A460D
:1006F0000146044802F096FBBDE81040014802F0B4
:10070000D1BB0000C0040020704710B54FF48060DA
:1007100000F048FA4FF4006000F044FA4FF48050C3
:1007200000F040FABDE8104001F0A4BB03F07ABE2F
:1007300070470000F8B50024009490F82420254666
:10074000012A12D0012280F824204A681F23072A98
:100750000DD20668776B521E02EB820293409F43D4
:100760000B6893401F43776319E00220F8BD0668C9
:100770000D2A0AD2376BD21F02EB820293409F43AD
:100780000B6893401F43376309E0F76A0D3A02EBA9
:10079000820293409F430B6893401F43F7620A68AD
:1007A000072306680A2A0AD3F7680A3A02EB4202CC
:1007B00093409F438B6893401F43F76008E037697D
:1007C00002EB420293409F438B6893401F43376183
:1007D0000A68102A01D0112A20D1124B02689A42CD
:1007E00017D193681B0219D4936843F400039360F4
:1007F0000968102912D10C490C4A0968B1FBF2F1C1
:1008000001EB8101490000E0491E00910029FBD164
:1008100004E0816A41F020018162012480F82450C3
:100820002046F8BD00240140AC00002040420F00EB
:1008300070470068C06C704710B504460068416896
:10084000890626D50168890723D5A16AC90603D47C
:10085000A16A41F40071A1628168C1F34241072994
:1008600010D1E16871B9416821F020014160A06AAE
:1008700020F48070A062A06AC00403D4A06A40F093
:100880000100A0622046FFF7D3FF21686FF012003D
:1008900008602068416809062ED5016849072BD5F4
:1008A000A16AC90603D4A16A41F40051A16281681A
:1008B000C1F30231072909D04168490515D481687F
:1008C000C1F34241072910D1E16871B9416821F0B3
:1008D00080014160A06A20F48050A062A06AC00537
:1008E00003D4A06A40F00100A0622046FFF720FF79
:1008F00021686FF00C0008602068416849060DD53A
:100900000068C0070AD0A06A40F48030A062204688
:1009100000F098F821686FF00100086010BD000039
:100920002DE9F04104004FF0000514D0A06A002624
:1009300028B9E66284F82460204600F085F8204655
:10094000FFF7AEFDA16A01F01001014304D0A06AD7
:1009500040F01000A0626BE0A16A21F4885141F0E0
:100960000201A162334923688B42E16904D1B1F5E8
:10097000402F01D14FF40021E7684FF4807C41EA19
:10098000470261680A43A168614509D0012907D07F
:100990005FF00001D4F814E0BEF1010F02D00AE0CC
:1009A0006146F7E7C7B1A76A47F02007A762E76A81
:1009B00047F00107E7625F6827F469470F435F600C
:1009C000236899681C4F394011439960A1686145BB
:1009D0000BD0012909D00CE0DFF860E0A7690EEB2D
:1009E00047370F4347F40061E5E7218A0D05A5F578
:1009F00080152168CB6A23F470032B43CB622168F6
:100A000089680F4B1940914208D1E662A16A21F032
:100A1000020141F00101A162BDE8F081A06A20F06D
:100A2000020040F01000A062E06A40F00100E062C5
:100A30000120F1E7003C0140FDF7E1FF00E0FFFF8E
:100A4000FE0E1FFF7047000000B500680F4985B01B
:100A5000884218D10E48816941F400718161806932
:100A6000694600F40070049001200090032001907A
:100A7000084800F0A3F800221146122000F030FAD6
:100A8000122000F021FA05B000BD00000024014052
:100A9000001002400008014070B5044690F82400A0
:100AA00001280DD0012084F824002046FFF71EFD08
:100AB00002004FF0000005D084F82400104670BDFD
:100AC000022070BDA16A40F60163994341F4807130
:100AD000A162224D23682249AB4218D10E6816F458
:100AE000702F14D0A66A46F48016A6620E687605AA
:100AF00005D5A66A26F4005646F48056A662A66A74
:100B0000F6040AD5E66A26F00606E66206E0A66A5C
:100B100026F48016A6625E68E9E7E06284F82400A5
:100B20006FF0020018602068436843F020034360C0
:100B300020688368C3F34243072B05D1A84208D13C
:100B4000096811F4702F04D0816841F4801181602C
:100B5000B4E7816841F4A001F9E7000000280140F2
:100B60000424014010B5044690F82400012807D061
:100B7000012084F824002046FFF792FC10B10CE01D
:100B8000022010BD21684A6822F020024A60A16A52
:100B900021F4885141F00101A162002184F8241060
:100BA00010BD7047044910B50A68024202D00860BF
:100BB000FFF7F7FF10BD0000140401402DE9F84FC6
:100BC000DFF8B8A100220AF1040B144601274FF008
:100BD0000F090BF1040E00BF0B6807FA04F52B4058
:100BE000AB4274D1DFF898C14E68A6EB0C0866459D
:100BF0002BD00DDC032E34D005DC36B3012E19D0FA
:100C0000022E2FD11BE0112E16D0122E2AD119E060
:100C1000B8F5881F19D006DCB8F5803F15D0B8F5B7
:100C2000801F1FD111E0B8F5001F0ED0B8F5041FCA
:100C300018D10AE0CA6815E0CA68121D12E0CA6835
:100C400008320FE0CA680C320CE08A682AB1012A27
:100C50004FF0080203D0456104E0042202E0056180
:100C600000E00022FF2B01D8064601E000F1040657
:100C70004FEA840501D9A5F12005D6F800C009FA8C
:100C800005F82CEA080C02FA05F54CEA050CC6F842
:100C900000C04D68ED006AD53A4DAE6946F00106D8
:100CA000AE61AD6924F0030605F001050095364DEF
:100CB00006EB050CDCF80850A6074FEA167809FA8F
:100CC00008F6B543314EB04202D100261AE04EE09C
:100CD0002F4EB04201D1012614E02E4EB04201D178
:100CE00002260FE02C4EB04201D103260AE02B4E23
:100CF000B04201D1042605E0294EB04201D10526BB
:100D000000E0062606FA08F62E43CCF808604D6887
:100D1000DAF80060ED03554601D51E4300E09E431E
:100D20002E604D68AD0305D5DBF800601E43CBF89F
:100D3000006004E0DBF800509D43CBF800504D68A4
:100D4000DEF80060ED02754601D51E4300E09E43CB
:100D50002E604D68AD0205D5084D0C352E681E433A
:100D60002E6004E0054E0C3635689D433560641CEA
:100D7000102CFFF431AFBDE8F88F000000040140F3
:100D80000000111000100240000001400008014066
:100D9000000C014000100140001401400018014007
:100DA000001C01408068084000D0012070470AB153
:100DB000016170470904FBE7014880687047000043
:100DC000A0000020024881680278114481607047C9
:100DD000A0000020074810B5016841F01001016033
:100DE000032000F09DF8002000F006F800F024F841
:100DF000002010BD0020024070B50D4D04464FF498
:100E00007A712878B1FBF0F00A490968B1FBF0F07B
:100E100000F0D4FD48B9102C07D200222146501E04
:100E200000F05EF800206C6070BD012070BD000015
:100E3000A0000020AC000020214808B5816941F0E5
:100E400001018161816901F001010091C16941F0F5
:100E50008051C161C06900F080500090032000F013
:100E60005FF8002211466FF00B0000F039F8002205
:100E700011466FF00A0000F033F8002211466FF0BF
:100E8000090000F02DF800221146501F00F028F84C
:100E900000221146101F00F023F800221146901E78
:100EA00000F01EF800221146501E00F019F8054807
:100EB000416821F0E06141F00071416008BD00002F
:100EC000001002400000014000F01F02012191408B
:100ED0004009800000F1E020C0F8001170470000D8
:100EE000F0B40E4B1B680C46C3F30223C3F1070595
:100EF000042D00D90425191D072901D2002300E083
:100F0000DB1E012606FA05F1491E214099409E404C
:100F1000761E16403143F0BC01F055B90CED00E0EF
:100F2000064900F0070208684FF6FF03184040EA40
:100F30000220034A10430860704700000CED00E0F7
:100F40000000FA0510B50C0605D501F07F0100EB95
:100F50004110283003E000EB411000F50A7099B20F
:100F600032B101228272C180190C0181002010BDB2
:100F7000002282728180F9E7704700EB4112D0F8BD
:100F80005C04D26B02F02CB900EB4112D0F85C0487
:100F9000D2F83C2202F079B910B504460A460B0695
:100FA00001F07F0004EB401101D5283101E001F58B
:100FB0000A710870D009487094F82804012809D0F3
:100FC000012084F82804206802F06EFD002084F8D7
:100FD000280410BD022010BD70B50A46044609065B
:100FE00002F07F0003D504EB4011283103E004EB4D
:100FF000421101F50A7100258D700870D009487002
:1010000094F82804012809D0012084F828042068D5
:1010100002F0F8FD84F82854002070BD022070BD55
:1010200001F00F0100EB4110B0F8440280B27047AC
:1010300070B504460D460E0601F07F0004EB40112A
:1010400001D5283101E001F50A710870E8094870FE
:101050000A61CB7094F82804012809D0012084F893
:101060002804206802F0E2FB002084F8280470BD08
:10107000022070BD70B50C4601F07F0500EB4511F4
:10108000C1E98F230022C1F8442281F8292281F886
:10109000285201F50A716206006802F00DFE002078
:1010A00070BD70B50D460446090605F07F0003D5F6
:1010B00004EB4011283103E004EB451101F50A71FE
:1010C00001228A700870E809487094F82804012801
:1010D00007D084F82824206802F0C9FD680602D0F1
:1010E00006E0022070BD04F22C41206802F088FD69
:1010F000002084F8280470BD70B50C4601F07F050F
:1011000000EB4511C1E90F2300224A64012281F856
:10111000292001F8285F6206006802F0CDFD00205A
:1011200070BD10B50446006802F088FF000402D5C7
:10113000204601F058F8206802F080FF40050CD5E9
:10114000206830F8441F21F480610180204600F0BF
:10115000EDF80021204600F0FEF8206802F06EFF56
:10116000400405D5206830F8441F21F480410180F7
:10117000206802F063FF800405D5206830F8441F22
:1011800021F400510180206802F058FFC00414D5FA
:10119000206830F8401F21F004010180206830F8F9
:1011A000401F21F008010180204600F0CCF82068A3
:1011B00030F8441F21F480510180206802F03EFF86
:1011C00000051AD5206830F8401F41F00801018061
:1011D000206830F8441F21F400610180206830F855
:1011E000401F41F004010180206802F027FFC04346
:1011F000C00402D5204600F0E3F8206802F01EFF8C
:10120000800508D5206830F8441F21F40071018062
:10121000204600F09CF8206802F010FFC00505D5BC
:10122000206830F8441F21F48071018010BD000057
:101230002DE9F04186B004004FF0000504D094F889
:101240002904002620B108E0012006B0BDE8F081A5
:1012500084F82864204600F04BF8032084F8290421
:10126000206802F0C6FC04F110011422884668468A
:10127000FEF78AFF94E80F0002F014FC00212068BA
:1012800002F0EFFE5FF0010704EB451080F82970D3
:1012900000F8285F8581C670066146616D1C866115
:1012A0000F2DF1D35FF0000004EB401181F82962AB
:1012B00081F82802888681F82B62C1F83862C1F86B
:1012C0003C62401CC1F840620F28EDD31422414615
:1012D0006846FEF759FF94E80F0002F07BFC84F8A3
:1012E000246084F82974206802F072FC0020ACE7C6
:1012F00008B500680B49884212D10B48C16941F416
:101300000001C161C069002200F400000090114694
:101310001420FFF7E5FDBDE808401420FFF7D4BD19
:1013200008BD0000005C00400010024010B50446FB
:101330000121D0F85C0402F093F8D4F85C04BDE815
:10134000104002F05CB8D0F85C0402F077B8D0F836
:101350005C0402F079B810B5044690F8280401281E
:101360000BD0012084F8280484F82410206802F0AF
:101370007AFE002084F8280410BD022010BDD0F8A9
:101380005C2400F22C41104602F07DB810B50446F2
:1013900090F82804012810D0012084F82804014680
:1013A0002046FFF7E9FD206802F010FC206802F0FB
:1013B00058FD002084F8280410BD022010BD000054
:1013C00010B50446D0F85C0402F0AAF8A069002821
:1013D00004D00348016841F00601016010BD00001F
:1013E00010ED00E02DE9F84305460078354CC007C4
:1013F00054D0E0690026C00008D4E06940F0805075
:10140000E061E069012600F0805000902E480168FC
:10141000C90512D40168804641F480710160FFF76C
:10142000CBFC074605E000BFFFF7C6FCC01B6428E5
:1014300023D8D8F80000C005F6D5206A10F4407013
:1014400021D0A98801F4407181421CD0206A1F4933
:10145000012220F440700A6000220A602062C00766
:1014600011D0FFF7A9FC074641F2883808E000BF19
:10147000FFF7A2FCC11B414502D90320BDE8F88358
:10148000206A8007F4D5206A696820F44070084318
:1014900020621EB1E06920F08050E061287880076A
:1014A00005D56068A96820F440400843606028784A
:1014B000C00605D56068696920F480000843606053
:1014C0000020DBE700100240007000404004424270
:1014D0002DE9F047DFF83C8105460E46D8F80000BC
:1014E00000F00700B0420CD2D8F8001021F007013C
:1014F0003143C8F80010D8F8000000F00700B042EF
:1015000063D12878444C800705D56068A96820F02D
:10151000F000084360602878C00745D0686801285B
:1015200016D02168022816D0890700294DDA616893
:1015300021F0030101436160FFF73EFC6968074643
:1015400041F2883001290FD00229814619D027E0C5
:1015500021688903E9E78901E7E700BFFFF72CFC71
:10156000C11B494501D918E081466068C0F381007C
:101570000128F3D118E000BFFFF71EFCC11B49454D
:101580000BD86068C0F381000228F5D10CE000BFE1
:10159000FFF712FCC11B494502D90320BDE8F087C3
:1015A000606810F00C0FF3D1D8F80010404601F03D
:1015B0000701B1420BD9016821F0070131430160F5
:1015C000006800F00700B04201D00120E6E728786B
:1015D000400705D56068E96820F4E0600843606072
:1015E0002878000706D56068296920F4605040EA31
:1015F000C100606000F01CF86168084AC1F3031183
:10160000515CC840064908600020FFF7F5FB002048
:10161000C4E7000000200240001002401C45000802
:10162000AC0000200148006870470000AC000020BA
:1016300012A185B00FC98DE80F0014A0144A0068EC
:1016400004905168134801F00C03042B10D0082BB0
:101650000ED1C1F38343C9031DF803000AD55168B5
:1016600004AAC1F34041515C0A4A5043B0FBF1F077
:1016700005B0704708494843FAE700000203040533
:10168000060708090A0B0C0D0E0F101001020000CE
:101690000010024000127A0000093D002DE9F84FC9
:1016A00004460078B94DC00748D06868C0F381008F
:1016B000012807D06868C0F38100022809D1686852
:1016C000C00306D52868800338D5606800286FD02D
:1016D00034E06068B0F5803F0BD010B1B0F5A02FBA
:1016E00011D0286820F480302860286820F48020F9
:1016F00002E0286840F480302860606888B1FFF715
:101700005BFB064609E0286840F480202860F0E78B
:10171000FFF752FB801B642875D828688003F7D533
:101720000CE0FFF749FB064605E000BFFFF744FB6E
:10173000801B6428F0D828688003F7D42078944E62
:1017400080074FF001094FF000083BD5686810F0A2
:101750000C0F07D06868C0F38100022809D16868BF
:10176000C00306D42868800714D5206901281FD13A
:1017700010E02069B0B1C6F80090FFF71DFB0746E6
:1017800005E000BFFFF718FBC01B0228C4D828687B
:101790008007F7D52868616920F0F80040EAC100A9
:1017A00028600FE0C6F80080FFF706FB074606E05A
:1017B000E9E000BFFFF700FBC01B022823D8286820
:1017C0008007F7D4207800072CD57248A169D9B1D9
:1017D000C0F80090FFF7F0FA074604E0FFF7ECFAD4
:1017E000C01B02280FD8686A8007F7D56A484FF4F3
:1017F000FA510068B0FBF1F0009000BF0098411E64
:101800000091FAD20EE080E0C0F80080FFF7D4FA31
:10181000074604E0FFF7D0FAC01B022875D8686AB3
:101820008007F7D42078400760D5E8690027C0001A
:1018300008D4E86940F08050E861E869012700F0C9
:101840008050009055480168C90513D4016883464B
:1018500041F480710160FFF7AFFA824606E000BFF5
:10186000FFF7AAFAA0EB0A0064284ED8DBF80000C4
:10187000C005F5D5E06801280AD008B1052813D0C5
:10188000286A20F001002862286A20F0040002E0A3
:10189000286A40F001002862E06841F2883B98B174
:1018A000FFF78AFA82460BE0286A40F004002862BB
:1018B000EEE700BFFFF780FAA0EB0A0159455AD8BE
:1018C000286A8007F6D50CE0FFF776FA824605E035
:1018D000FFF772FAA0EB0A0159454CD8286A800735
:1018E000F6D41FB1E86920F08050E861E06988B360
:1018F0006968C1F38101022945D00228C6F86080D9
:1019000004D0FFF759FA044638E034E0FFF754FA00
:10191000074604E0FFF750FAC01B02282BD82868BE
:101920008001F7D4206AB0F5803F05D16868A168CE
:1019300020F4003008436860D4E90801084369686E
:1019400021F4741108436860C6F86090FFF734FA18
:10195000044606E015E000BFFFF72EFA001B022840
:1019600009D828688001F7D50BE000BFFFF724FAFB
:10197000001B022802D90320BDE8F88F28688001E7
:10198000F4D40020F8E70120F6E700000010024040
:101990000000424280044242AC000020007000403F
:1019A0004FF0E0210428086903D020F0040008610A
:1019B000704740F00400FAE700F020BF10B5401E69
:1019C000B0F1807F01D3012010BD4FF0E0246061B1
:1019D0000F21601700F0F7FB0020A06107202061B5
:1019E000002010BD10B5FFF7E7FF10BD704770472E
:1019F00030B590F83C20012A20D0012280F83C200C
:101A0000022380F83D3003685C6824F070045C6059
:101A100003685C680D682C435C6003689C6824F074
:101A200080049C6003689C6849680C439C6080F853
:101A30003D20002180F83C10084630BD022030BD1A
:101A400010B5040003D094F83D0010B107E0012068
:101A500010BD002084F83C00204600F00DF8022064
:101A600084F83D00211D206800F0DEFF012084F88D
:101A70003D00002010BD000008B501681448B1F118
:101A8000804F14D0134A914220D1C16941F0020124
:101A9000C161C069002200F00200009011461D20C3
:101AA000FFF71EFA1D20BDE80840FFF70DBAC16917
:101AB00041F00101C161C069002200F00100009005
:101AC00011461C20FFF70CFA1C20ECE708BD0000B3
:101AD00000100240000400400168CA6842F00102A0
:101AE000CA600068016841F0010101600020704790
:101AF0000168CA6822F00102CA600068016A41F206
:101B00001112114207D1016A9210114203D10168EA
:101B100021F0010101600020704770B5044690F883
:101B20003C00012817D0012584F83C50022084F89D
:101B30003D002068826822F0770222F47F428260B2
:101B40000868502837D00DDC202859D005DC88B330
:101B5000102841D151E0022070BD302853D04028D8
:101B60003AD13FE060282ED070280BD0B0F5805FCE
:101B700003D0B0F5005F2FD110E02068816821F01C
:101B8000070115E0CB68D1E90121206800F092FF40
:101B90002168886840F0770088601DE0CB68D1E953
:101BA0000121206800F086FF2068816841F48041AF
:101BB000816011E01EE0CA684968206800F08CFF6F
:101BC0005021206806E0CA684968206800F095FF47
:101BD0006021206800F078FF84F83D50002084F8F0
:101BE0003C0070BDCA684968206800F075FF40215C
:101BF0002068EFE700212068ECE710212068E9E782
:101C000020212068E6E730212068E3E7704770B5BF
:101C10000446006801694FF00005C943890715D4DF
:101C2000C168C943890711D4E91E016101202077E9
:101C3000206880698007204602D0FFF7E7FF04E0B4
:101C400000F098F8204600F096F8257720680169A2
:101C5000C943490717D4C168C943490713D46FF072
:101C600004010161022020772068806910F4407F20
:101C7000204602D0FFF7CAFF04E000F07BF82046C0
:101C800000F079F8257720680169C943090716D45F
:101C9000C168C943090712D46FF00801016104202B
:101CA00020772068C0698007204602D0FFF7AEFF8A
:101CB00004E000F05FF8204600F05DF8257720682A
:101CC0000169C943C90617D4C168C943C90613D4F9
:101CD0006FF010010161082020772068C06910F4BE
:101CE000407F204602D0FFF791FF04E000F042F869
:101CF000204600F040F8257720680169C943C907EC
:101D000008D1C168C943C90704D1891E01612046B1
:101D100000F032F820680169C943090609D4C16896
:101D2000C943090605D46FF0800101612046FFF721
:101D30005DFE20680169C943490609D4C168C943E9
:101D4000490605D46FF040010161204600F015F806
:101D500020680169C94389060BD4C168C943890653
:101D600007D46FF0200101612046BDE87040FFF705
:101D70003EBE70BD7047704770477047FEE7F0B5D4
:101D80000023041E1F464FF0300604D00A258AB1F6
:101D900013461A4623E02AB90E704F70F0BDCE5498
:101DA0005B1CDBB29342FAD3CF54F0BDB4FBF5F425
:101DB0005B1CDBB2002CF9D1EBE758B1B0FBF5F4BA
:101DC00005FB1404B0FBF5F001EB030C30340CF808
:101DD000014C02E0CC1804F8016C5B1EDBB2002B56
:101DE000EBD18F54F0BD000070B500F023F8094D21
:101DF000044668700848FFF77BFEA91C4A78A24297
:101E000006D1012008708A704C700022CA702870B8
:101E100070BD00000E00002040040020014601209B
:101E2000CA0705D0401C4908C0B20428F8D30020D6
:101E30007047000070B50A4D4FF480612846FEF7E8
:101E4000B1FF4400E9142846FEF7ACFF20434006EA
:101E5000040EA9142846FEF7A5FF204370BD00001C
:101E600000100140024800210170417081707047EC
:101E70001000002070B5FFF7DDFF154904468D1CEA
:101E80004870287868B1012801D0022808D10020C4
:101E9000072C19D06978A14202D0A9706C70E87043
:101EA00070BD072C0BD06878A04202D00948FFF71C
:101EB0001FFE6C70BDE870400648FFF70DBEBDE820
:101EC00070400448FFF714BE28706978A970E6E7EF
:101ED0000E0000204004002070B51148017801294F
:101EE0001DD100250570042000F01CF8030016D059
:101EF0000B4CA41C20781870207820B16078FFF774
:101F00008DFF588004E0A078FFF788FF5880657047
:101F1000BDE8704000211A46012000F0FFB870BDF6
:101F20000E000020002801D002F0C2BA7047000065
:101F30003EB50F4800240D498460C46044610160CF
:101F4000012505614FF460214460C161FEF7E8FCA2
:101F500000B1FEE7CDE90045694605480294FEF769
:101F6000E9FB002800D0FEE73EBD00000024014050
:101F70001004002030B5234885B0816941F020016C
:101F80008161816901F020010491816941F00401BE
:101F90008161816901F004010491816941F01001BE
:101FA0008161816901F010010491816941F00801AA
:101FB00081618069144D00F0080004900022C02166
:101FC0002846FEF7F4FE4FF4E05000900F4801243D
:101FD000CDE9010469460E48FEF7F0FDC020CDE9C9
:101FE00000040020CDE9020469462846FEF7E6FD1C
:101FF000002211462820FEF773FF2820FEF764FF19
:1020000005B030BD00100240000C0140000031104E
:102010000010014010B5134886B04FF080410160B8
:1020200040F2DF110024C0E9011440F2E731C0E9B9
:1020300003148461FFF704FD00B1FEE74FF4805004
:10204000009069460748FFF768FD00B1FEE7049479
:1020500004A904480594FFF7CBFC002800D0FEE754
:1020600006B010BD4004002010B5144886B01249D7
:10207000016040F2DF110024C0E9011442F20F7147
:10208000C0E903148461FFF7DBFC00B1FEE74FF405
:102090008050009069460948FFF73FFD00B1FEE718
:1020A000049404A905480594FFF7A2FC002800D079
:1020B000FEE706B010BD00000004004080040020D0
:1020C00010B500220849094801F055F808490748A9
:1020D00001F053FA0749054800F096FEBDE81040AC
:1020E000024801F097BA000050000020C004002010
:1020F000900100208400002010B500F049F8FFF79F
:10210000B1FE00F04FFDFEF729FA00F007FB00F0EA
:102110001DFABDE8104000F002BDFEE770B50446B0
:1021200015460E460C20FFF7FDFE002811D0047066
:1021300046800021074AC0E9015152F8241019B91C
:1021400042F8240004E011468A68002AFBD1886026
:10215000012070BD1400002070B50C4E002400BF9B
:1021600056F8240060B1012C03D1706800F030FDF6
:102170000546022D04D0032D02D0204600F016F8AB
:10218000641CE4B2022CEBD370BD000014000020EC
:1021900000200549024600BF41F82020401CC0B283
:1021A0000228F9D37047000014000020044A0146B9
:1021B00052F82100836842F82130FEF7B7BA0000D8
:1021C0001400002070470907090E002806DA00F005
:1021D0000F0000F1E02080F8141D704700F1E020AE
:1021E00080F8001470472DE9FC5F4FF000080446AA
:1021F000ADF80480ADF8008048F60F7B4FF002097F
:102200004FF4806692E1BDF8041011F00F072BD057
:1022100030F82710ADF80010BDF80010090478D58B
:1022200030F8272040F68F710A4020F8272004EB71
:10223000471595F8320205F50A750028206869D01F
:10224000297830F8212052047DD5B0F8503009EBC0
:10225000C101194406EB4101415AC1F309015FEA8A
:10226000010A71D0EA88D0E0BDF80410C9062AD46A
:10227000018801EA0B010180206804F12805B0F80B
:1022800050202B7809EBC301114406EB4101405A61
:10229000C0F309006064E16B0844E063002120465C
:1022A000FEF76BFE94F824000028ABD0A869002844
:1022B000A8D194F82400216840F08000A1F84C00D7
:1022C00084F8248032E1018804F50A75ADF8001025
:1022D000BDF8001009051ED5B0F850302978062247
:1022E00002EBC101194406EB4101405A04F22C41B2
:1022F000C0F30903EB61AA88206801F0A3FE2068FF
:10230000018840F68F72114001802046FFF737F8B0
:102310000CE1A0E055E0BDF800100904D2D5028818
:1023200040F68F710A4002802068B0F8503029785A
:10233000062202EBC101194406EB4101405A830514
:102340009B0DEB6101E051E063E008D0AA88696968
:10235000206801F077FEE969686908446861002136
:102360002046FEF711FE2068B0F85010891D06EBDC
:102370004101014428693E280CD9C0F34F12C00620
:1023800001D1521E92B24FF6FF7000EA822040F453
:10239000004009E0C0F34F02C00701D0521C92B2C6
:1023A0004FF6FF7000EA82200860216808884BF62B
:1023B0008F72104080F4405048F280021043088031
:1023C000B4E0B0F850202B78062101EBC301114492
:1023D00006EB4101415AC1F309015FEA010A24D029
:1023E000AA885346696901F02DFE1EE0B0F850201E
:1023F000062303EBC101114406EB4101415AC1F32D
:1024000009015FEA010A04D02A895346696901F08B
:1024100019FE2978206830F8213048F68F72134071
:1024200048F2C002134320F82130E96901EB0A00A9
:10243000E861696901EB0A026A61AB6913B1286955
:10244000504504D929782046FEF79EFD03E02978FF
:102450002046FEF70FFEBDF80000000666D5206896
:1024600004EB471530F8271001EA0B0120F827107C
:1024700095F8320028350028206812D0297830F8E5
:102480002120B0F8503052061ED509EBC101194485
:1024900006EB4101405A83059B0DEB6124D0EA888D
:1024A0001EE0B0F850302A7809EBC201194406EB5F
:1024B0004101405A83059B0DEB6121D0AA886969CF
:1024C000206801F029FE1BE0062202EBC10119443D
:1024D00006EB4101405A83059B0DEB6104D02A892C
:1024E0006969206801F018FE2978206830F82120F9
:1024F00048F68F731A404CF280031A4320F82120CB
:102500002068B0F850202B7809EBC301114406EB8A
:102510004101405AC0F30900E86169690A186A611B
:102520002978AB69204663B1FEF7E6FD2068B0F874
:102530004410ADF8041009043FF565AE0020BDE875
:10254000FC9FFEF71AFDF1E77047000004480021E8
:10255000017040F2CA618180022000F049B9000098
:10256000940000201FB5002000900190029003907D
:102570002048018842888088114408440321B0FB28
:10258000F1F01C4980B2891F4880FDF7AFFE1A4A5E
:102590001A4BFDF739FEFDF7B6FE80B20A21B0FBFB
:1025A000F1F201FB1202052A04D3B0FBF1F0401C4A
:1025B00084B201E0B0FBF1F411A16846FDF71BFE07
:1025C0006420B4FBF0F130318DF800102E218DF82D
:1025D0000110B4FBF0F100FB114000220DF10201EB
:1025E000FFF7CDFB08A16846FDF7F2FD684601F054
:1025F000D5FC1FBD9A000020986E1283C0CAE93F27
:10260000566F6C74203D2000560000000B4810B53A
:102610008088FDF76BFE0A4A0A4BFDF7F5FDFDF7D2
:1026200072FE80B20A21B0FBF1F201FB1202B0FB94
:10263000F1F0052A01D3401C80B210BD94000020A7
:10264000986E1283C0CAE93F70B51A4840F226312D
:10265000408848434FF47A71B0FBF1F00A21B0FB97
:10266000F1F201FB1202B0FBF1F0052A00D3401C8D
:1026700085B20520FFF756FC040018D0002020602A
:1026800020716426B5FBF6F000222146FFF777FBA8
:1026900009A12046FDF79CFD2046FDF7A5FD011987
:1026A000B5FBF6F006FB10500222FFF768FB204650
:1026B00070BD0000940000202E00000004484188F6
:1026C0008088814201D801207047002070470000B7
:1026D0009400002010B50D4A941F217822F81100B3
:1026E000491CC8B2207003280AD3FFF73BFF002023
:1026F000207002460121BDE810400846FFF70EBDDC
:10270000BDE810400020FDF78DBF00009A000020BA
:102710000149888070470000940000200349002090
:10272000C1F80D0048744861886170471C000020A2
:1027300070B50D4C2068002815D02078002518B100
:102740002570002000F070FA607818B165700120E3
:1027500000F06AFAA078002805D0A570BDE87040A6
:102760000020FDF75FBF70BD3000002018484178A1
:1027700000292CD0491E4170A0F10C010A78521C8E
:102780000A70D20707D14A68521C4A608A68521CF4
:102790008A6000220A700E4B81780122083329B129
:1027A000491E11F0FF01817000D11A70C17829B162
:1027B000491E11F0FF01C17000D15A700179002942
:1027C00005D0491E11F0FF01017100D19A707047C8
:1027D00028000020024908B1C878704788787047FF
:1027E0002800002001488068704700001C0000207D
:1027F0000149400008717047280000200648017810
:10280000491CC9B20170322904D3002101704178FA
:10281000491C4170704700002800002010B5084B8B
:10282000002203F1080430B1012803D1D970002936
:1028300000D1627010BD99700029FBD1227010BDCB
:102840002800002070B505460C460846FDF7CCFC74
:102850001E4E0119B5FBF6F00022FFF790FA1CA1FD
:102860002046FDF7B5FCB5FBF6F006FB10552046FB
:10287000FDF7BAFC01194FF46166B5FBF6F00222D0
:10288000FFF77DFA12A12046FDF7A2FCB5FBF6F09A
:1028900006FB10552046FDF7A7FC01193C26B5FBA9
:1028A000F6F00222FFF76BFA09A12046FDF790FC33
:1028B0002046FDF799FC0119B5FBF6F006FB105018
:1028C000BDE870400222FFF75ABA000080510100B3
:1028D0003A000000704730B530B129B1002308E05C
:1028E000C45CCD5CAC4201D0012030BD1CB15B1C8E
:1028F000DBB29342F4D3002030BD70B50C46050026
:1029000015D024B1FDF770FCA04203D22846FDF794
:102910006BFC84B2002208E0A85CA0F161011929D7
:1029200001D82038A854521C92B2A242F4D370BDF0
:1029300010B5FEF747FABDE81040FFF753B830B5C1
:1029400095B001210804CDE900100024029402256D
:102950000491CDE90750000109906846FEF79EFEFC
:1029600000B1FEE70F20CDE90A054FF48060CDE904
:102970000C404FF4A0600E9001210AA8FEF7A8FDBC
:1029800000B1FEE712200F904FF400401190C001FB
:1029900014900FA8FEF726FD00B1FEE7FEF742FEF9
:1029A0006421B0FBF1F0FFF709F80420FEF7F8FF0F
:1029B00000221146501EFEF793FA15B030BD0000FC
:1029C0000D48016841F00101016041680B4A114066
:1029D000416001680A4A11400160016821F48021C8
:1029E0000160416821F4FE0141604FF41F018160E4
:1029F0000449C00308607047001002400000FFF85F
:102A0000FFFFF6FE08ED00E010B50348FFF7FFF802
:102A1000BDE81040FFF7E8B9400400200148FFF787
:102A2000F6B8000080040020F0B502681C4B1D4D74
:102A30001D4E1E4F1E4C4FF0804C984209D0A042B4
:102A400007D0604505D0A84203D0B04201D0B842BB
:102A500004D122F0700E4A6842EA0E02984209D070
:102A6000A04207D0604505D0A84203D0B04201D0B3
:102A7000B84203D122F44075CA682A4322F0800587
:102A80004A692A4302608A68C2620A68826298427E
:102A900001D0A04201D10969016301214161F0BD6A
:102AA000002C01400004004000080040000C0040E1
:102AB0000034014010B5846842EA032224F47F44C4
:102AC0000A432243826010BD826822F070020A43EA
:102AD00042F007018160704710B5036A046A24F070
:102AE00001040462846924F0F00444EA021423F02F
:102AF0000A020A438461026210BD10B5036A23F022
:102B0000100303628369046A23F4704343EA0232C8
:102B100024F0A00343EA01118261016210BD7047F5
:102B20001CB5044600200090019006A16846FDF700
:102B300062FB0022204601A9FFF721F9684601F057
:102B40002DFA1CBD5445503A0000000010B5FFF7A7
:102B5000B5FD01280AD0002000F050F8012000F057
:102B60004DF8BDE810400120FFF742BE0C48C07888
:102B700001280CD0002000F041F80120FFF72AFEC8
:102B80000028EED15FF0010000F04EF8E9E70120E7
:102B900000F034F80020FFF71DFE0028F4D0E0E735
:102BA00038000020034800210170C170417081701D
:102BB00070470000380000204088012804D10348F5
:102BC000C17881F00101C170704700003800002019
:102BD00010B5020004D0508820B101280BD108E0C4
:102BE000032010BD5068FFF7E7FF5068FDF79EFD1A
:102BF00001E0FFF7ABFF002010BD000010B504009E
:102C0000084802D0012C03D006E00022802101E018
:102C100000224021FEF7CBF82046BDE810400021FD
:102C2000FFF7FCBD000C014010B504461348144BDF
:102C300020444178012907D000291ED1012141708B
:102C4000ACB1012C16D00CE00021417014B1012C64
:102C500002D006E000220BE000220CE01846FEF74E
:102C6000A6F82046BDE810400121FFF7D7BD01229C
:102C70008021F3E701224021F0E710BD3800002059
:102C8000000C0140D0F8180220B10021C0F8141245
:102C9000084670470220704770B50546D0F81842C4
:102CA00000F028FBC4F80C02D5F8180248B1D5F89A
:102CB0001C12D4F80402CA6804F50371904700207E
:102CC00070BD022070BD70B504460025812100F062
:102CD00077FA0121204600F073FA8221204600F0A5
:102CE0006FFAD4F8180250B1D4F81C0204F5067437
:102CF00040688047206800F093FD0020206028464F
:102D000070BD10B5D0E9864159B194F80002FF2892
:102D100007D08B6894F8012221469847FF2084F859
:102D20000002002010BD00000A2101800048704709
:102D3000B8000020432101800048704708010020AE
:102D40004321018000487047C400002043210180D6
:102D5000004870474C0100202DE9F0410446007CFA
:102D600000254FF4007670B34023022281212046D3
:102D700000F022FB402302220121204600F01CFB30
:102D8000082303228221204600F016FB4FF407702F
:102D900000F048FDC4F81802F0B10746D4F81C0250
:102DA000006880470020C7F81402C7F81802207C8A
:102DB000D7F8042290B140230121204600F00FFBF8
:102DC0002846BDE8F081FFE73346022281212046F4
:102DD00000F0F2FA3346CEE70125F1E73346EBE7A0
:102DE00010B5D0F8181269B1027C002AD1F804227B
:102DF00005D04023012100F0F2FA002010BD4FF46D
:102E00000073F7E7022010BD02460220002902D01D
:102E10000020C2F81C127047D0F81802C0F8041243
:102E200000207047D0F81802C0F81022C0F808122D
:102E30000020704770B50646D0F8185208780C4646
:102E400010F0600121D0202927D1E288AAB1000624
:102E5000607807D5D6F81C128B6829469847E28817
:102E6000294617E085F80002A07985F80102E2887A
:102E70002946304600F050F80FE0D6F81C12607872
:102E800000228B682146984707E060780A2804D121
:102E900003490122304600F059F8002070BD0000BF
:102EA000B400002010B5D0F8181289B1D1F814225E
:102EB0000AB1012010BD0122C1F81422B1F810227C
:102EC00093B2D1F80822812100F033FB002010BD1D
:102ED000022010BD10B5D0F814225268904700208F
:102EE00010BD134610B50A46002100F078FA002004
:102EF00010BD134610B50A46002100F01AFB002051
:102F000010BD10B50446802100F0EAFA2046BDE865
:102F10001040002100F0E4BA10B50323C0F80821E6
:102F2000C0F8F431C0F80C2113460A46002100F025
:102F300056FA002010BD10B505210023C0F8F41189
:102F40001A46194600F04BFA002010BD10B50223B6
:102F50008261C0F8F431C26113460A46002100F0D4
:102F6000E8FA002010BD10B504210023C0F8F411C8
:102F70001A46194600F0DDFA002010BD10B50A46C9
:102F8000024903A000F0D4F8004810BD640D0020F1
:102F900043444320436F6E66696700001220088037
:102FA000004870477000002010B50A46024903A08F
:102FB00000F0BEF8004810BD640D002043444320DB
:102FC000496E7465726661636500000004200880C4
:102FD000004870476C00002010B50A46024903A063
:102FE00000F0A6F8004810BD640D002053544D6950
:102FF00063726F656C656374726F6E6963730000F2
:1030000010B50A46024903A000F092F8004810BD2E
:10301000640D002053544D3332205669727475612B
:103020006C20436F6D506F727400000010B50A463B
:10303000024903A000F07CF8004810BD640D002098
:10304000303030303030303030303141000000002E
:10305000F8B5044648880D46010A08294BD2DFE836
:1030600001F04A0409174A4A4048D4F81012207C5B
:103070000A6832E0207C02260028D4F8140205D029
:10308000C16A684688470146467041E0816AF8E7B0
:10309000C0B206282FD2DFE800F003080D12171C7B
:1030A000D4F81012207C4A6817E0D4F81012207C63
:1030B0008A6812E0D4F81012207CCA680DE0D4F8B7
:1030C0001012207C0A6908E0D4F81012207C4A69AA
:1030D00003E0D4F81012207C8A69694690470146C3
:1030E00016E0207C38B9D4F81402416B6846884752
:1030F000F5E7207C20B129462046FFF702FFF8BD06
:10310000D4F81402016B68468847014607204870CE
:10311000BDF800000028F2D0EA88002AEFD08242F1
:1031200000D90246ADF800202046FFF70FFFF8BD9A
:1031300070B5002300281DD00446002502E06D1C58
:10314000EDB2641C2678002EF9D1022404EB45046C
:103150001480CC545B1C0322CA5400245B1C06E080
:10316000CA545B1CDAB28C54521CD3B2401C027895
:10317000002AF5D170BD10B580B1D0F8143213B16A
:103180000023C0F8143209B1C0F81012012180F8F0
:10319000FC11027000F0B2F8002010BD022010BD3A
:1031A00010B50024D0F82002FDF716FF30B1012839
:1031B00001D0022801D0022400E00124204610BDE5
:1031C00010B50024D0F82002FDF7E6FE30B101284A
:1031D00001D0022801D0022400E00124204610BDC5
:1031E0002DE9F0411746044641B1D4F81402426972
:1031F0008AB394F8FC01032842D043E0D4F8F411D8
:10320000002504F11400022933D1D0E902639E4263
:1032100007D9F31A83609AB239462046FFF769FE50
:1032200012E04068B0FBF3F103FB1101A1B9984231
:1032300012D3D4F8F81188420ED20022114620464B
:10324000FFF757FEC4F8F85100231A4619462046E6
:1032500000F0C5F80DE012E0D4F81402C16829B1FD
:1032600094F8FC01032801D1204688472046FFF747
:1032700062FE94F80002012804D184F8005201E0B3
:10328000204690470020BDE8F08170B51546044601
:1032900041B1D4F8140282693AB394F8FC010328CE
:1032A00024D025E0D4F8F41104F5827003291FD14D
:1032B000D0E902218A420BD9531A8360084683421F
:1032C00000D303469AB229462046FFF70AFE0FE0D4
:1032D000D4F81402016929B194F8FC01032801D142
:1032E000204688472046FFF73EFE01E020469047F3
:1032F000002070BDD0F82002FDF792BE10B5204925
:103300000446C1F85C04C0F820121E48086008207A
:103310004860022088600320C86000208861C8617E
:1033200008620846FDF784FF20B14FF4977116A09C
:1033300001F068F80022D4F820021823114604F5A1
:103340000874FDF7FFFD5823002280212068FDF757
:10335000F9FDC023002281212068FDF7F3FD4FF421
:103360008873002201212068FDF7ECFD4FF4807383
:10337000002282212068FDF7E5FD002010BD00003D
:1033800004090020005C00402E2E2F5372632F751D
:103390007362645F636F6E662E6300000A06D0F886
:1033A000200201F07F0100EB411002D590F82A00C5
:1033B000704790F82A02704770B51D4613460024E6
:1033C000D0F820022A46FDF733FE30B1012801D0A3
:1033D000022801D0022400E00124204670BD10B56F
:1033E0000024D0F82002FDF745FE30B1012801D0BD
:1033F000022801D0022400E00124204610BD70B54F
:103400000022044640231146FFF7D6FF40252B46F5
:10341000002280212046C4F81051FFF7CDFF012083
:10342000256284F8FC01D4F8180228B1D4F81402FB
:103430002179426820469047002070BD90F8FD1128
:1034400080F8FC110020704710B590F8FC1103299A
:1034500004D1D0F81412C96901B18847002010BD09
:1034600001740020704710B50024D0F82002FDF749
:1034700072FF30B1012801D0022801D0022400E0FF
:103480000124204610BD70B5044600F502700546C3
:1034900000F05FF80120C4F8F401B4F80E02C4F89B
:1034A000F80194F8080210F01F010AD001290DD08C
:1034B000022910D000F08001204600F011F8002011
:1034C00070BD2946204600F0AAF8F8E729462046B4
:1034D00000F08CF9F3E72946204600F019F9EEE7F1
:1034E00010B50024D0F82002FDF7DBFD30B1012833
:1034F00001D0022801D0022400E00124204610BDA2
:1035000010B50024D0F82002FDF740FF30B10128AB
:1035100001D0022801D0022400E00124204610BD81
:1035200090F8FC1180F8FD11042180F8FC110020B6
:10353000704710B50024D0F82002FDF7DDFD30B152
:10354000012801D0022801D0022400E001242046F5
:1035500010BD0A7802704A7842708A78CB7802EB04
:10356000032242800A794B7902EB032282808A7916
:10357000C97902EB0121C18070470246002011B1D8
:10358000C2F8141270470220704710B5D0F8142208
:1035900002241AB11268904700B90024204610BDD9
:1035A00070B50E461A4D897804462970012928D82D
:1035B00094F8FC01022802D0032822D105E099B139
:1035C0000320616084F8FC0109E091B160688842E1
:1035D0000AD0C1B22046FFF77DFC29786160204601
:1035E000FFF7D3FF02280CD02046BDE87040FFF75C
:1035F000BABC022084F8FC0120466160FFF76AFC37
:10360000F2E731462046BDE87040FFF77ABC000083
:10361000B000002010B5FFF773FF002010BD2DE9AA
:10362000F04100264B78012532460A2B43D2DFE8D1
:1036300003F03C584251420805422A27FFF708FD93
:1036400063E004468888C8B9C888B8B9887800F0AB
:103650007F0794F8FC01032810D084F8FE713946E6
:103660002046FFF700FF2046FFF77DFC1FB1022038
:1036700084F8FC0149E084F8FC5146E020461AE059
:10368000FFF78EFF41E0CB88012B14D190F8FC317D
:10369000022B02D0032B0ED104E08260012200F144
:1036A000080114E00122011D11E090F8FC21022A1A
:1036B00004D0032A02D0FFF724FC26E0C560D0F82E
:1036C000041209B10321C160022200F10C01FFF7CD
:1036D0003DFC1AE004464888012816D1C4F804527B
:1036E0000BE0044690F8FC01022801D00328C5D164
:1036F0004888012809D1C4F80422D4F81402826849
:10370000204690472046FFF72EFC3046BDE8F0816A
:1037100070B50D460446287800260979C0F341109B
:10372000012806D06878A0B301281FD003283FD114
:1037300007E0D4F81402294682682046904700200A
:1037400070BD94F8FC01022817D003282CD168889A
:1037500028B921B1802902D02046FFF7C1FED4F854
:103760001402294682682046904713E094F8FC0131
:10377000022802D0032817D103E0C9B180291BD148
:1037800016E06888A0B9480604D02046FFF708FD77
:10379000E5E703E02046FFF7E6FB09E094F8FC01CB
:1037A000022807D003280BD029462046FFF7A9FBA3
:1037B000304670BD4806FBD02046FFF791FEF7E784
:1037C000080601F07F0004EB001501D5143501E077
:1037D00005F582752046FFF7E1FD00B10120286064
:1037E000022229462046FFF7B1FBE1E770B5054606
:1037F00090F8FC010C4603280DD1207901280AD845
:10380000D5F81402826828469047E08830B92846E7
:10381000FFF7A9FB02E02846FFF773FB002070BD0D
:103820007047000000487047E40600202DE9F0478B
:10383000CC780A7848F68F1334B1012C6DD0022C65
:1038400008D0032C13D10BE030F822401C4044F484
:1038500000730AE030F822401C4020F8224006E0C5
:1038600030F822401C4044F4C06320F822300C7829
:1038700030F8245048F68F72154048F280031D43FB
:10388000254320F824508D7A48F6BF7904274BF65B
:103890008F7A48F2C0044CF28006EDB30D7830F810
:1038A00025C048F280180CEA020C4CEA080C20F8FB
:1038B00025C0CD88B0F850C025F0010591F80080F2
:1038C0000CEBC80C00EB4C0CCCF800540D89B0F894
:1038D00050C025F0010591F8008007EBC807674448
:1038E00000EB4707C7F800544D78002D0D7830F8ED
:1038F00025704FEA47477DD0002F05DA30F8257054
:103900001740374320F825700D7830F825707F0672
:1039100008D530F8257001E024E01DE0174027436A
:1039200020F825700C7830F824501540354320F8E5
:1039300024500C7830F8242002EA09021A4320F8B7
:1039400024200A7830F8221001EA0A01194320F8ED
:1039500022100020BDE8F08730F822401C4044F4DB
:10396000806382E74D78F5B18D88B0F8506025F01E
:1039700001050F7806EBC70600EB4606C6F80054B3
:103980000D7830F82560760605D530F825601640AC
:10399000264320F825600A7830F8221001EA090150
:1039A00081F02001D2E78C88B0F8505024F0010457
:1039B00091F800C007EBCC073D4400EB4505C5F886
:1039C0000044B0F850400D78062707EBC5052C449D
:1039D00000EB44070C694FF6FF7C07F580673E2C2F
:1039E0000CD9C4F34F15E40601D16D1EADB20CEA3B
:1039F000852400E01EE044F4004407E0C4F34F05D2
:103A0000E40701D06D1CADB20CEA85243C600C7853
:103A100030F824506D0405D530F824501540354356
:103A200020F824500A7830F8221001EA0A0181F4C3
:103A300040518BE7002F05DA30F8257017403743E7
:103A400020F825700D7830F82560760605D530F819
:103A500025601640264320F825600E7830F8265061
:103A60001540254320F826500C7830F8242002EA2F
:103A70000A0282F440521A4320F824200A7830F8CF
:103A8000221001EA090161E7002907D0044A5268BF
:103A9000022A01D000F066BA00F00ABA70470000AE
:103AA00044000020002070472DE9F04391F80A807F
:103AB00091F801C00A7848F6BF774BF68F7948F243
:103AC000800348F2C0054CF2800648F68F74B8F1C6
:103AD000000F2ED0BCF1000F30F822C04FEA4C4C42
:103AE0004ED0BCF1000F07DA30F822C00CEA040C0B
:103AF0004CEA060C20F822C00A7830F822C05FEAAF
:103B00004C6C07D530F822C00CEA040C4CEA050CCA
:103B100020F822C00A7830F822502540354320F89A
:103B200022500C7830F824203A401A4320F8242000
:103B30001BE0BCF1000F0ED030F82260760605D5F0
:103B400030F8226026402E4320F822600A7830F8B0
:103B5000221039400EE030F822506D0405D530F8BF
:103B600022502540354320F822500A7830F82210A0
:103B700001EA0901194320F822100020BDE8F08372
:103B8000BCF1000F07DA30F822C00CEA040C4CEA52
:103B9000060C20F822C00A7830F82260760605D597
:103BA00030F8226026402E4320F822600E7830F84C
:103BB000262022402A4320F826200C7830F82420A2
:103BC00002EA09021A4320F82420BFE700207047C8
:103BD0000020704700B50121A0F840100021A0F896
:103BE0004010A0F84410A0F8501000F03AF900205E
:103BF00000BD30F8401F21F43D4101800020704796
:103C00000020704730B54D780A78002D48F68F7443
:103C100030F8225048F2800312D06D0607D530F8F4
:103C20002250254048F2C004254320F822500A784B
:103C300030F8221048F6BF74214081F0300111E0C5
:103C40006D0407D530F8225025404CF280042543FE
:103C500020F822500A7830F822104BF68F74214059
:103C600081F44051194320F82210002030BD10B5D6
:103C70000A7848F2800352B14978002930F82210BE
:103C800010D048F6BF74214081F010010FE0018888
:103C90004BF6BF72114081F4805181F0100119433D
:103CA000018007E04BF68F74214081F48051194365
:103CB00020F82210002010BD2DE9F0410D460646E7
:103CC000896995F801C00023AA7A022728690C4661
:103CD00048F28008BCF1010F05D0814252D9044658
:103CE000081AA8614FE0814203D90446081AA86166
:103CF00000E0AB617AB1287836F820104906B6F8B2
:103D0000501007EBC000084406EB4000C0F8004428
:103D100012D52A8911E0A3B2AA883046696900F059
:103D2000FBF9B6F85000297807EBC101084406EB0F
:103D30004000C0F800441CE0EA88A3B2304669693C
:103D400000F0EAF9687848F68F7110B1012807D0C1
:103D50000FE0287836F820200A4048F2C00105E03C
:103D6000287836F820200A404CF280010A4326F8D1
:103D70002020297836F8210048F6BF72104080F0E4
:103D8000300067E0AB6106234FF6FF701AB1BCF15B
:103D9000000F1BD056E0B6F850102A783E2C03EBEB
:103DA000C202114406EB410202F5806239D9C4F324
:103DB0004F11E30632D000BF00EA812040F40040FA
:103DC00002E000BF00EA812010603BE0B6F850102E
:103DD0002A783E2C07EBC202114406EB410202F5A1
:103DE00080620BD9C4F34F115FEAC46C01D1491E44
:103DF00089B200EA812141F4004108E0C4F34F0197
:103E00005FEAC47C01D0491C89B200EA81211160BB
:103E100069780029BFD001290AD013E0491E89B270
:103E2000CAE7C4F34F01E307CCD0491C89B2C9E704
:103E3000B6F85000297807EBC101084406EB4000B2
:103E4000C0F80044297836F821004BF68F721040F4
:103E500080F4405040EA080026F821000020BDE828
:103E6000F08130F8401F41F43F410180002070474D
:103E700010B5FCF703FC002815D10B484168032955
:103E800009D000290FD10838406800280BD0BDE8C0
:103E9000104000F0EFB800214160BDE81040012162
:103EA000024800F029BA10BD44000020D0010020D3
:103EB0002DE9F84307460E462548FCF795F94FF0E3
:103EC0000008C4B24546DFF88890CDF8008036E09F
:103ED000785D082804D00D2816D0781901211DE03E
:103EE0005CB308208DF8000020218DF801108DF8BA
:103EF000020003216846FCF7F1FB09EB0401641E94
:103F000001F8018CE4B218E00A208DF800000D20C1
:103F10008DF801008DF8028002216846FCF7DEFB77
:103F2000785D0D280FD009F80400641CE4B2FF2C62
:103F300003D1611C0648FCF740F96D1CEDB2B54297
:103F4000C6D3BDE8F883034803214160F9E70000C8
:103F5000D0010020440000200148FDF7E2B8000035
:103F60000409002070B5044600780D4600280FD0E3
:103F70000848416800290BD102214160C901064867
:103F8000FCF71BF929462046BDE87040FFF790BFBB
:103F900070BD000044000020D001002070B505462F
:103FA00025484068002846D1002D44D02846FCF71B
:103FB0001BF984B20820FDF7B5FF06003BD0E01CDA
:103FC00080B2FDF7AFFF3060A8B1E11CFCF7F5F857
:103FD00029463068FCF70FF931680A200855316826
:103FE000641C0D200855144C0020083C7060656866
:103FF00035B1284608E03046BDE87040FCF796BB76
:104000000120666016E0084641680029FBD1466041
:104010002078401CC0B220700F280CD968686060FE
:1040200035B1286808B1FCF781FB2846FCF77EFB18
:104030002078401E207070BD44000020B0F844007D
:10404000704700005B1C00EB42005B0800F58060DD
:1040500006D000BF30F8042B21F8022B5B1EF9D1EB
:1040600070470020704711B98021A0F84C10002043
:104070007047000070B5264C6168086850B1FCF7C5
:10408000B3F886B240212348FCF797F8402E0AD9AE
:10409000402109E0084649686160FCF747FB207849
:1040A000401E207070BDF1B200201A4A656804E01D
:1040B0002B681B5C1354401C80B28842F8D3402EFE
:1040C00013D9402006E02968A0F140020B5C401C97
:1040D0008B5480B2B042F6D36068403E4021006805
:1040E0003044FCF76AF840260CE06868606035B13F
:1040F000286808B1FCF71AFB2846FCF717FB207864
:10410000401E20703146BDE870400248FCF7E6BA18
:104110003C000020D002002010B55B1C00EB4200E8
:104120005B0800F5806009D011F8012B5B1E11F8C7
:10413000014B42EA042220F8042BF5D110BDFEE722
:1041400010B50024012907D0022902D003290DD17E
:1041500008E000F015F902E0001D00F013F804007B
:1041600004D007E0401D00F0FDF8F8E702A1044884
:10417000FCF741F8204610BD4552524F5200000056
:104180001003002010B5017839B13F2902D03D2934
:104190002AD06AE04078002867D1FEF737FA642217
:1041A000B0FBF2F33249303301F8013B2E2301F822
:1041B000013BB0FBF2F302FB13000022FDF7DFFD31
:1041C0002CA12B48FCF704F8FEF73EFA040049D076
:1041D00001462748FBF7FCFF28A12548FBF7F8FF1D
:1041E0002046FCF7A3FA3DE082782E2A00D0DABB05
:1041F000417830390A2938D289B201EBC10303EB87
:1042000001114FF6FF7303EA8101BAB1C278AAB176
:10421000A2F130030A2B28D202EB820201EB420109
:10422000A1F5F071027989B242B14079E0B9A2F109
:1042300030000A2819D23039501881B2B1F5A57F63
:1042400013D80846FCF752F80D4A0E4BFBF7DCFF7B
:10425000FCF759F884B20CA10548FBF7CCFF2046C7
:10426000FEF756FA012010BDFFE70020FBE7000033
:104270001003002054562C2000000000435600007C
:104280006DE7FBA9F1D228404F4B000070B500212B
:1042900005460C4601E0491CC9B2685C08B13D28DE
:1042A000F9D1E9B12846FEF728FB03220DA12846E3
:1042B000FEF711FB48B104220BA12846FEF70BFBC9
:1042C00028B12878532804D00AE0022408E0012409
:1042D00006E0042206A1681CFEF7FDFA00B90324DB
:1042E000204670BD564552004C424154000000002B
:1042F000595355500000000070B50C460546022188
:10430000FEF7FBFA032212A12846FEF7E4FA002882
:1043100010484FF4807102D0FBF74FFF0CE0FBF721
:104320004CFFE81CFFF7B2FF01000B48047003D0FC
:10433000E81CFFF705FF03E008A10648FBF75BFF59
:10434000012C02D10348FFF729FE012070BD0000B7
:1043500041542B00100300204C0000204552524FC6
:104360005200000010B5007808B1002010BDFEF723
:1043700039FA0249FEF766FA012010BD1003002049
:1043800010B5C1783F2901D011B903E0007908B117
:10439000002010BD15A11948FBF72DFF1748FBF7AA
:1043A00023FF164C002201190120FDF7E8FC14A19F
:1043B0002046FBF70DFF2046FBF716FF01190022F0
:1043C0001046FDF7DCFC0EA12046FBF701FF20465E
:1043D000FBF70AFF011900221046FDF7D0FC20462A
:1043E000FBF702FF00212154012010BD56696A61CC
:1043F0007950726A20566572200000001003002078
:104400002E000000FEE702E008C8121F08C1002AC3
:10441000FAD170477047002001E001C1121F002A45
:10442000FBD1704710B5002821D0114B0022001F8E
:10443000196803E0814203D80A4649680029F9D186
:1044400052B11368841A9C4204D100681844106069
:10445000104602E0506000E0186039B102680B1AA3
:10446000934203D10B681A4402604968416010BD51
:10447000C8010020FCF7AEFCFEF761FAFDF77AFDFB
:10448000FDF71EFEFDF754FDFDF7C4FDFDF7ECFD45
:10449000FDF732FEFDF760FEFEF768F9FEF748F91A
:1044A000FCF79CF8FDF718FDFFF7E2FCF2E70000CF
:1044B000F0B50B30154D20F007010024144A0FE031
:1044C00003688B420BD38B4205D95E1A43184768A9
:1044D000C3E9006700E04368136002C004E0021D06
:1044E00010680028ECD12046002802D1286808B1C5
:1044F0000020F0BD064A07481060074A121A22F051
:104500000702C0E9002401202860D7E7CC01002081
:10451000C80100203C1700203819002000000000CE
:104520000000000001020304060708094C450008CA
:1045300000000020D00100003604000810460008EA
:10454000D0010020681B0000164400080150139D94
:104550002F1B08CD041AD9041301301B082D041A8F
:104560007D0C1AA9041704030904120114020202A3
:104570001640830440572602010203011395061BCF
:104580000877041A73041AB904C1191F1182108420
:10459000A24A04130A0632022A40201C0902434B95
:1045A000111CC032091F1B01020B13052416100138
:1045B000052401100901042402020524061701073D
:1045C000058203081C10090481320A1D0705010237
:1045D000432C070581070938442A40072A8107111F
:1045E0002B0907440A2204440A16FF4413592D14C8
:1045F00008C72C1408352E42081A03101A85101A01
:104600009904C11A41181A35041A4D041A29048153
:0400000508000131BD
:00000001FF
