:020000040800F2
:10000000D822002045010008DD2F0008132B00082E
:10001000332F000835070008436400080000000083
:100020000000000000000000000000003D49000842
:10003000CD0700080000000061330008C94900082E
:100040005F0100085F0100085F01000899350008A2
:100050005F0100085F0100085F0100085F01000800
:100060005F0100085F0100085F0100085F010008F0
:100070005F0100085F0100085F0100085F010008E0
:100080005F0100085F010008B90400085F01000873
:10009000716100085F0100085F0100085F0100084E
:1000A0005F0100085F0100085F0100085F010008B0
:1000B0005F010008CD4A00085F0100085F010008E9
:1000C0005F0100085F0100085F0100085F01000890
:1000D0005F0100085F0100085F0100085F01000880
:1000E0005F0100085F0100085F0100085F01000870
:1000F0005F0100085F0100085F0100085F01000860
:100100005F0100085F0100085F0100085F0100084F
:100110005F0100085F0100085F0100085F0100083F
:100120005F0100085F0100085F0100085F0100082F
:10013000DFF80CD000F074F900480047557900084A
:10014000D82200200648804706480047FEE7FEE721
:10015000FEE7FEE7FEE7FEE7FEE7FEE7FEE7FEE777
:10016000854A000831010008202A04DB203A21FAE0
:1001700002F00021704721FA02F3D040C2F12002C0
:10018000914008431946704740EA01039B0703D09A
:1001900009E008C9121F08C0042AFAD203E011F8C6
:1001A000013B00F8013B521EF9D27047D2B201E088
:1001B00000F8012B491EFBD270470022F6E710B56C
:1001C00013460A4604461946FFF7F0FF204610BDC5
:1001D000421E12F8013F002BFBD111F8013B02F83F
:1001E000013B002BF9D17047421C10F8011B00297C
:1001F000FBD1801A7047034611F8012B00F8012B40
:10020000002AF9D1184670472DE9FE4F81EA030410
:1002100004F0004421F0004100944FF0000B23F063
:10022000004350EA01045ED052EA03045BD0C3F3FA
:100230000A54C1F30A552C44A4F2F3340194A0FBF0
:100240000254C1F3130141F48011C3F3130343F4C7
:10025000801301FB024400FB034E840A970A44EA20
:10026000815447EA8357A4FB076802958D0A05FB72
:1002700007854FEA932C04FB0C542705029D4FEA97
:10028000065847EA1637B5EB08056EEB070C870EE4
:10029000920E47EA811742EA8312A7FB0201B6EBEE
:1002A0000B0164EB00042B0D43EA0C335E1844EBA6
:1002B0001C50DA465146E7FB0201C5F313044FEA2E
:1002C0000B3343EA14534FEA0432019C43EA06031A
:1002D000A4F10C040294009CCDE900B400F052F8A3
:1002E00003B0BDE8F08F00200146F9E770B521F0BA
:1002F000004303430CD0C1F30A550024D5EB040599
:1003000064EB0403D617AD1AB34102DB00200146AB
:1003100070BD201841EB025170BD0EB540F2334163
:1003200002910021CDE900110A460B4600F02AF89F
:1003300003B000BDC1F30A5210B5C1F3130140F27E
:10034000FF3341F480119A4201DA002010BD40F2DF
:1003500033439A42A2F2334203DC5242FFF704FFD6
:1003600010BD904010BD10B5141E73F1000408DAE2
:10037000401C41F1000192185B411A4301D120F069
:10038000010010BD2DE9F04D92469B4611B1B1FA26
:1003900081F202E0B0FA80F22032904600F052F88A
:1003A00004460F4640EA0A0041EA0B0153465A460A
:1003B000084313D0114653EA010019D0C8F1400296
:1003C0005046FFF7D1FE05460E4650465946424676
:1003D00000F038F8084305D0012004E020463946F3
:1003E000BDE8F08D0020054346EAE0762C43374314
:1003F0000A986305E40AA0EB08000022FD0A44EA1B
:1004000047540A3002D500200146E9E701051019DA
:100410006941DDE9084500196941BDE8F04DA2E7F1
:10042000064C074D06E0E06840F0010394E8070041
:1004300098471034AC42F6D3FFF77EFE5C7E00088E
:100440007C7E0008202A04DB203A00FA02F100201A
:1004500070479140C2F1200320FA03F31943904002
:10046000704770B58C1810F8015B15F0070301D1C7
:1004700010F8013B2A1106D110F8012B03E010F807
:10048000016B01F8016B5B1EF9D12B0705D400232A
:10049000521E0DD401F8013BFAE710F8013BCB1ACC
:1004A000921C03E013F8015B01F8015B521EF9D5C1
:1004B000A142D8D3002070BD10B5034800F030FA37
:1004C000BDE8104000F068B8A408002070B50446EC
:1004D00000688168C943C9071CD1816821F0010106
:1004E000816000F0E3FC05460FE000BF00F0DEFC99
:1004F000401B022809D9A06A40F01000A062E06AFF
:1005000040F00100E062012070BD20688068C043B7
:10051000C007EBD0002070BDF8B500260446009659
:1005200000688168C943C90728D0816841F001018A
:100530008160134813490068B0FBF1F000E0401EF1
:1005400000900028FBD100F0B1FC054611E000BF8F
:1005500000F0ACFC401B02280BD9A06A40F0100050
:10056000A062E06A40F00100E06284F824600120AB
:10057000F8BD20688068C043C007E9D10020F8BDFD
:10058000CC00002040420F0002490020087000F01B
:100590002FB800000000002070B5134C2046A17851
:1005A000808804F1080502290FD208B1012808D17A
:1005B0000E4800F0B2F9A17825F811000B4800F0C0
:1005C000DFFAA078401CA07070BD08B1012803D1EB
:1005D000064800F0A2F9A88001202070A088E080E1
:1005E000BDE8704000F004B800000020A40800201E
:1005F0000348002141708170024800F027BB0000D1
:1006000000000020A408002000B58DB03421684609
:10061000FFF7D3FD0D490878012812D1002008709A
:1006200001F10800C9880288438880881A44104470
:100630000322B0FBF2F080B229B1012901D104F00C
:10064000C7FA0DB000BD02F043FFFAE7000000203A
:10065000FEB5104D04466878012802D0FFF7C8FFA8
:100660000CB10020FEBD0024012602200094CDE93B
:1006700001606946084800F0D1F80648AC800830AF
:10068000AC70048044808480034800F079FA6E7076
:100690000120FEBD00000020A40800200146014802
:1006A00001F008BE3C09002010B5044801F014FE1A
:1006B000042801D0012010BD002010BD3C090020FD
:1006C00038B501208DF800009DF80000012801D008
:1006D000012038BD064801F015FE040006D14FF494
:1006E0000061034801F0BDFC00B10124204638BD83
:1006F0003C09002038B50024009313460A46014601
:10070000034801F071FE00B10124204638BD00000D
:100710003C09002038B50024009313460A460146E0
:10072000034801F03BFF00B10124204638BD000022
:100730003C090020FEE700207047002070470000C1
:1007400004490020D1F81812D1F81412002900D061
:1007500001207047400A002010B5002204490548D6
:1007600004F008FC0449034804F0FEFB002010BD1F
:10077000CC180020400A0020E414002070B50D467B
:1007800004460146054804F0EFFB044804F0D0FBA2
:100790002978204605F020FA002070BD400A00208C
:1007A000094A10B5D2F81822D2F814220AB1012051
:1007B00010BD0A460146044804F0DCFBBDE81040C9
:1007C000014804F017BC0000400A002070470022D6
:1007D000AFF3008030B50E4B054601205C7A012C4A
:1007E00015D8587A00241C54587A03EB80004560D1
:1007F0005D7A03F108002A54587A421C5A7230304C
:1008000008703A2048702F208870CC70002030BDCE
:10081000CC1C002006F09ABF70470000F8B50024F9
:10082000009490F824202546012A12D0012280F855
:1008300024204A681F23072A0DD20668776B521EB0
:1008400002EB820293409F430B6893401F43776300
:1008500019E00220F8BD06680D2A0AD2376BD21FB4
:1008600002EB820293409F430B6893401F43376320
:1008700009E0F76A0D3A02EB820293409F430B684E
:1008800093401F43F7620A68072306680A2A0AD3BF
:10089000F7680A3A02EB420293409F438B68934009
:1008A0001F43F76008E0376902EB420293409F4321
:1008B0008B6893401F4337610A68102A01D0112AC0
:1008C00020D1124B02689A4217D193681B0219D4A7
:1008D000936843F4000393600968102912D10C490E
:1008E0000C4A0968B1FBF2F101EB8101490000E01B
:1008F000491E00910029FBD104E0816A41F02001EA
:100900008162012480F824502046F8BD0024014073
:10091000CC00002040420F0070470068C06C704758
:1009200010B5044600684168890626D50168890724
:1009300023D5A16AC90603D4A16A41F40071A1625A
:100940008168C1F34241072910D1E16871B941685A
:1009500021F020014160A06A20F48070A062A06AAA
:10096000C00403D4A06A40F00100A0622046FFF753
:10097000D3FF21686FF01200086020684168090603
:100980002ED5016849072BD5A16AC90603D4A16AEF
:1009900041F40051A1628168C1F30231072909D0F5
:1009A0004168490515D48168C1F34241072910D136
:1009B000E16871B9416821F080014160A06A20F4CA
:1009C0008050A062A06AC00503D4A06A40F0010074
:1009D000A0622046FFF720FF21686FF00C0008603E
:1009E0002068416849060DD50068C0070AD0A06A92
:1009F00040F48030A062204600F098F821686FF043
:100A00000100086010BD00002DE9F04104004FF026
:100A1000000514D0A06A002628B9E66284F8246094
:100A2000204600F085F82046FFF750FDA16A01F04E
:100A30001001014304D0A06A40F01000A0626BE0F6
:100A4000A16A21F4885141F00201A162334923686F
:100A50008B42E16904D1B1F5402F01D14FF400215F
:100A6000E7684FF4807C41EA470261680A43A16865
:100A7000614509D0012907D05FF00001D4F814E0E6
:100A8000BEF1010F02D00AE06146F7E7C7B1A76ADD
:100A900047F02007A762E76A47F00107E7625F684F
:100AA00027F469470F435F60236899681C4F3940FA
:100AB00011439960A16861450BD0012909D00CE070
:100AC000DFF860E0A7690EEB47370F4347F400619A
:100AD000E5E7218A0D05A5F580152168CB6A23F489
:100AE00070032B43CB62216889680F4B19409142F8
:100AF00008D1E662A16A21F0020141F00101A16280
:100B0000BDE8F081A06A20F0020040F01000A06271
:100B1000E06A40F00100E0620120F1E7003C0140A2
:100B2000FDF7E1FF00E0FFFFFE0E1FFF7047000032
:100B300000B500680F4985B0884218D10E48816918
:100B400041F4007181618069694600F4007004908D
:100B50000620009003200190084800F0A9F8002228
:100B60001146122000F0F8FA122000F0E9FA05B060
:100B700000BD0000002401400010024000080140B8
:100B800070B5044690F8240001280DD0012084F8A7
:100B900024002046FFF7C0FC02004FF0000005D003
:100BA00084F82400104670BD022070BDA16A40F692
:100BB0000163994341F48071A162224D2368224967
:100BC000AB4218D10E6816F4702F14D0A66A46F402
:100BD0008016A6620E68760505D5A66A26F400562C
:100BE00046F48056A662A66AF6040AD5E66A26F09E
:100BF0000606E66206E0A66A26F48016A6625E682D
:100C0000E9E7E06284F824006FF0020018602068D1
:100C1000436843F02003436020688368C3F3424382
:100C2000072B05D1A84208D1096811F4702F04D010
:100C3000816841F480118160B4E7816841F4A001CA
:100C4000F9E70000002801400424014010B50446E3
:100C500090F82400012807D0012084F824002046C1
:100C6000FFF734FC10B10CE0022010BD21684A6887
:100C700022F020024A60A16A21F4885141F001016A
:100C8000A162002184F8241010BD000070B5044654
:100C900000F00CF90546601C02D0044800780444BA
:100CA00000F004F9401BA042FAD370BDC000002040
:100CB0002DE9F84FDFF8B8A100220AF1040B144621
:100CC00001274FF00F090BF1040E00BF0B6807FA64
:100CD00004F52B40AB4274D1DFF898C14E68A6EB07
:100CE0000C0866452BD00DDC032E34D005DC36B362
:100CF000012E19D0022E2FD11BE0112E16D0122E4C
:100D00002AD119E0B8F5881F19D006DCB8F5803F64
:100D100015D0B8F5801F1FD111E0B8F5001F0ED017
:100D2000B8F5041F18D10AE0CA6815E0CA68121D98
:100D300012E0CA6808320FE0CA680C320CE08A6818
:100D40002AB1012A4FF0080203D0456104E00422D1
:100D500002E0056100E00022FF2B01D8064601E019
:100D600000F104064FEA840501D9A5F12005D6F863
:100D700000C009FA05F82CEA080C02FA05F54CEA5D
:100D8000050CC6F800C04D68ED006AD53A4DAE6955
:100D900046F00106AE61AD6924F0030605F00105D9
:100DA0000095364D06EB050CDCF80850A6074FEA17
:100DB000167809FA08F6B543314EB04202D1002642
:100DC0001AE04EE02F4EB04201D1012614E02E4E23
:100DD000B04201D102260FE02C4EB04201D10326D1
:100DE0000AE02B4EB04201D1042605E0294EB04264
:100DF00001D1052600E0062606FA08F62E43CCF8B7
:100E000008604D68DAF80060ED03554601D51E43D1
:100E100000E09E432E604D68AD0305D5DBF8006011
:100E20001E43CBF8006004E0DBF800509D43CBF894
:100E300000504D68DEF80060ED02754601D51E4396
:100E400000E09E432E604D68AD0205D5084D0C357F
:100E50002E681E432E6004E0054E0C3635689D4317
:100E60003560641C102CFFF431AFBDE8F88F000032
:100E70000004014000001110001002400000014079
:100E800000080140000C0140001001400014014026
:100E900000180140001C0140C2684A40C26070470F
:100EA0000AB1016170470904FBE70000014880684E
:100EB00070470000C000002070B504001BD094F8FB
:100EC0003D00002520B984F83C50204600F094F8FD
:100ED000242084F83D002068016821F001010160B0
:100EE00000F052FD404A6168914201D83F4900E05C
:100EF0003F49884201D2012070BD3E492368B0FBC2
:100F0000F1F159606368934206D94FF496735943DF
:100F10004FF47A73B1FBF3F12368491C19626168DD
:100F2000914210D84900401EB0FBF1F2521CC2F3AE
:100F30000B02042A01D2042022E0B0FBF1F0401C95
:100F4000C0F30B001CE0A368CBB301EBC10202EBC2
:100F50000116421EB2FBF6F2521C42F48042120508
:100F600036D06BB301EBC10202EB0111401EB0FBA6
:100F7000F1F0401CC0F30B0040F4804040F400400E
:100F80002168C861D4E90701084321680860D4E9F1
:100F90000310084321688860D4E9050108432168EB
:100FA000C8602068016841F00101016025642020CB
:100FB00084F83D00256384F83E50002070BD00E0B9
:100FC00008E001EB4106421EB2FBF6F2521CC6E7F6
:100FD0000120D5E701EB4101401EB0FBF1F0401CC0
:100FE000C0F30B00CAE70000A086010080841E0049
:100FF00000093D0040420F0000B500680C4985B073
:10100000884213D14FF440600090122001900320D9
:10101000039069460748FFF74BFE0748C16941F452
:101020008001C161C06900F48000049005B000BD7A
:1010300000580040000C0140001002400248816846
:101040000278114481607047C0000020074810B545
:10105000016841F010010160032000F09DF80020BC
:1010600000F006F800F024F8002010BD0020024037
:1010700070B50D4D04464FF47A712878B1FBF0F04D
:101080000A490968B1FBF0F001F062FB48B9102C85
:1010900007D200222146501E00F05EF800206C604E
:1010A00070BD012070BD0000C0000020CC000020F9
:1010B000214808B5816941F001018161816901F030
:1010C00001010091C16941F08051C161C06900F026
:1010D00080500090032000F05FF8002211466FF06E
:1010E0000B0000F039F8002211466FF00A0000F002
:1010F00033F8002211466FF0090000F02DF80022AD
:101100001146501F00F028F800221146101F00F071
:1011100023F800221146901E00F01EF8002211460E
:10112000501E00F019F80548416821F0E06141F0D7
:101130000071416008BD0000001002400000014045
:1011400000F01F02012191404009800000F1E020E1
:10115000C0F8001170470000F0B40E4B1B680C463D
:10116000C3F30223C3F10705042D00D90425191D7B
:10117000072901D2002300E0DB1E012606FA05F153
:10118000491E214099409E40761E16403143F0BCD6
:1011900001F025BF0CED00E0064900F007020868E9
:1011A0004FF6FF03184040EA0220034A104308604C
:1011B000704700000CED00E00000FA0510B50C06C9
:1011C00005D501F07F0100EB4110283003E000EB72
:1011D000411000F50A7099B232B101228272C180C9
:1011E000190C0181002010BD002282728180F9E774
:1011F000704700EB4112D0F85C04D26B04F098B851
:1012000000EB4112D0F85C04D2F83C2204F0E5B8BF
:1012100010B504460A460B0601F07F0004EB4011AE
:1012200001D5283101E001F50A710870D009487034
:1012300094F82804012809D0012084F828042068A3
:1012400004F004FD002084F8280410BD022010BD25
:1012500070B50A460446090602F07F0003D504EB88
:101260004011283103E004EB421101F50A71002519
:101270008D700870D009487094F82804012809D0AE
:10128000012084F82804206804F08EFD84F8285496
:10129000002070BD022070BD01F00F0100EB411075
:1012A000B0F8440280B2704770B504460D460E0691
:1012B00001F07F0004EB401101D5283101E001F578
:1012C0000A710870E80948700A61CB7094F8280424
:1012D000012809D0012084F82804206804F04EFB7E
:1012E000002084F8280470BD022070BD70B50C4643
:1012F00001F07F0500EB4511C1E98F230022C1F801
:10130000442281F8292281F8285201F50A716206E7
:10131000006804F0A3FD002070BD70B50D460446C2
:10132000090605F07F0003D504EB4011283103E0E6
:1013300004EB451101F50A7101228A700870E80971
:10134000487094F82804012807D084F828242068DD
:1013500004F05FFD680602D006E0022070BD04F2D2
:101360002C41206804F01EFD002084F8280470BD84
:1013700070B50C4601F07F0500EB4511C1E90F2364
:1013800000224A64012281F8292001F8285F6206C0
:10139000006804F063FD002070BD10B504460068CD
:1013A00004F0CEFF000402D5204601F028FE20689C
:1013B00004F0C6FF40050CD5206830F8441F21F426
:1013C00080610180204600F0EDF80021204600F009
:1013D000FEF8206804F0B4FF400405D5206830F81A
:1013E000441F21F480410180206804F0A9FF80049B
:1013F00005D5206830F8441F21F400510180206891
:1014000004F09EFFC00414D5206830F8401F21F07E
:1014100004010180206830F8401F21F0080101809C
:10142000204600F0CCF8206830F8441F21F48051A9
:101430000180206804F084FF00051AD5206830F888
:10144000401F41F008010180206830F8441F21F45A
:1014500000610180206830F8401F41F004010180E4
:10146000206804F06DFFC043C00402D5204600F0A0
:10147000E3F8206804F064FF800508D5206830F8A0
:10148000441F21F400710180204600F09CF8206880
:1014900004F056FFC00505D5206830F8441F21F43C
:1014A0008071018010BD00002DE9F04186B004007C
:1014B0004FF0000504D094F82904002620B108E07C
:1014C000012006B0BDE8F08184F82864204600F0D1
:1014D0004BF8032084F82904206804F05CFC04F134
:1014E0001001142288466846FEF74EFE94E80F006D
:1014F00004F0AAFB0021206804F035FF5FF001072B
:1015000004EB451080F8297000F8285F8581C670CB
:10151000066146616D1C86610F2DF1D35FF00000FE
:1015200004EB401181F8296281F82802888681F84D
:101530002B62C1F83862C1F83C62401CC1F84062BD
:101540000F28EDD3142241466846FEF71DFE94E8AD
:101550000F0004F011FC84F8246084F829742068DA
:1015600004F008FC0020ACE708B500680B4988428D
:1015700012D10B48C16941F40001C161C069002268
:1015800000F40000009011461420FFF7E5FDBDE8CF
:1015900008401420FFF7D4BD08BD0000005C0040E7
:1015A0000010024010B504460121D0F85C0403F09D
:1015B000FFFFD4F85C04BDE8104003F0C8BFD0F8CA
:1015C0005C0403F0E3BFD0F85C0403F0E5BF10B5A2
:1015D000044690F8280401280BD0012084F8280440
:1015E00084F82410206804F0C0FE002084F8280449
:1015F00010BD022010BDD0F85C2400F22C41104632
:1016000003F0E9BF10B5044690F82804012810D073
:10161000012084F8280401462046FFF7E9FD2068F0
:1016200004F0A6FB206804F0EEFC002084F82804F7
:1016300010BD022010BD000010B50446D0F85C04B7
:1016400004F016F8A069002804D00348016841F0AE
:101650000601016010BD000010ED00E0014901200D
:101660000862704700000E4210B52CA401461DCC44
:1016700086B08DE81D002DA02D4C00680490002040
:1016800004292FD00BDC01292FD0022928D100F00A
:101690008BF96168C1F38131491C49001EE00829BA
:1016A00020D010291CD161682268D20118D5C1F35D
:1016B0008342C9031DF8020009D5616804AAC1F379
:1016C0004041515C1B4AB2FBF1F1484301E01A4929
:1016D00048436168490203D440000321B0FBF1F0A4
:1016E00006B010BD00F070F9FAE7226AC2F30121DA
:1016F000012903D1920701D5C803F1E7022905D1D9
:10170000626A920702D549F64040E9E70329E7D12A
:1017100021688903E4D54FF22440E1E70203040580
:10172000060708090A0B0C0D0E0F1010010200002D
:101730000010024000127A0000093D002DE9F84334
:1017400005460078354CC00754D0E0690026C0003B
:1017500008D4E06940F08050E061E069012600F0C3
:10176000805000902E480168C90512D40168804657
:1017700041F480710160FFF799FB074605E000BF67
:10178000FFF794FBC01B642823D8D8F80000C005DD
:10179000F6D5206A10F4407021D0A98801F4407178
:1017A00081421CD0206A1F49012220F440700A6047
:1017B00000220A602062C00711D0FFF777FB0746BE
:1017C00041F2883808E000BFFFF770FBC11B4145BC
:1017D00002D90320BDE8F883206A8007F4D5206A87
:1017E000696820F44070084320621EB1E06920F06F
:1017F0008050E0612878800705D56068A96820F4EA
:101800004040084360602878C00605D56068696973
:1018100020F48000084360600020DBE700100240F5
:1018200000700040400442422DE9F047DFF83C815F
:1018300005460E46D8F8000000F00700B0420CD272
:10184000D8F8001021F007013143C8F80010D8F88B
:10185000000000F00700B04263D12878444C8007B4
:1018600005D56068A96820F0F0000843606028781A
:10187000C00745D06868012816D02168022816D014
:10188000890700294DDA616821F003010143616095
:10189000FFF70CFB6968074641F2883001290FD039
:1018A0000229814619D027E021688903E9E78901E7
:1018B000E7E700BFFFF7FAFAC11B494501D918E075
:1018C00081466068C0F381000128F3D118E000BFB1
:1018D000FFF7ECFAC11B49450BD86068C0F38100E3
:1018E0000228F5D10CE000BFFFF7E0FAC11B494523
:1018F00002D90320BDE8F087606810F00C0FF3D127
:10190000D8F80010404601F00701B1420BD9016838
:1019100021F0070131430160006800F00700B04288
:1019200001D00120E6E72878400705D56068E9681E
:1019300020F4E060084360602878000706D56068FE
:10194000296920F4605040EAC100606000F03CF872
:101950006168084AC1F30311515CC8400649086038
:101960000020FFF785FB0020C4E7000000200240B4
:1019700000100240847D0008CC000020014800686F
:1019800070470000CC000020044805490068496801
:10199000044AC1F30221515CC8407047CC000020CA
:1019A00000100240947D0008044805490068496819
:1019B000044AC1F3C221515CC8407047CC000020EA
:1019C00000100240947D000812A185B00FC98DE877
:1019D0000F0014A0144A006804905168134801F0E5
:1019E0000C03042B10D0082B0ED1C1F38343C90381
:1019F0001DF803000AD5516804AAC1F34041515CA7
:101A00000A4A5043B0FBF1F005B07047084948431B
:101A1000FAE7000002030405060708090A0B0C0D8B
:101A20000E0F1010010200000010024000127A0098
:101A300000093D002DE9F84F04460078B94DC00774
:101A400048D06868C0F38100012807D06868C0F3F7
:101A50008100022809D16868C00306D52868800380
:101A600038D5606800286FD034E06068B0F5803FFA
:101A70000BD010B1B0F5A02F11D0286820F4803021
:101A80002860286820F4802002E0286840F4803034
:101A90002860606888B1FFF709FA064609E02868FF
:101AA00040F480202860F0E7FFF700FA801B6428EC
:101AB00075D828688003F7D50CE0FFF7F7F90646DC
:101AC00005E000BFFFF7F2F9801B6428F0D8286812
:101AD0008003F7D42078944E80074FF001094FF02F
:101AE00000083BD5686810F00C0F07D06868C0F399
:101AF0008100022809D16868C00306D428688007DD
:101B000014D5206901281FD110E02069B0B1C6F8B2
:101B10000090FFF7CBF9074605E000BFFFF7C6F9D5
:101B2000C01B0228C4D828688007F7D528686169D7
:101B300020F0F80040EAC10028600FE0C6F80080FD
:101B4000FFF7B4F9074606E0E9E000BFFFF7AEF99A
:101B5000C01B022823D828688007F7D42078000704
:101B60002CD57248A169D9B1C0F80090FFF79EF951
:101B7000074604E0FFF79AF9C01B02280FD8686AED
:101B80008007F7D56A484FF4FA510068B0FBF1F0CE
:101B9000009000BF0098411E0091FAD20EE080E054
:101BA000C0F80080FFF782F9074604E0FFF77EF9EE
:101BB000C01B022875D8686A8007F7D420784007D0
:101BC00060D5E8690027C00008D4E86940F080507B
:101BD000E861E869012700F08050009055480168ED
:101BE000C90513D40168834641F480710160FFF791
:101BF0005DF9824606E000BFFFF758F9A0EB0A0046
:101C000064284ED8DBF80000C005F5D5E06801284F
:101C10000AD008B1052813D0286A20F001002862F4
:101C2000286A20F0040002E0286A40F001002862DF
:101C3000E06841F2883B98B1FFF738F982460BE043
:101C4000286A40F004002862EEE700BFFFF72EF993
:101C5000A0EB0A0159455AD8286A8007F6D50CE04E
:101C6000FFF724F9824605E0FFF720F9A0EB0A010F
:101C700059454CD8286A8007F6D41FB1E86920F08E
:101C80008050E861E06988B36968C1F38101022985
:101C900045D00228C6F8608004D0FFF707F9044653
:101CA00038E034E0FFF702F9074604E0FFF7FEF8FA
:101CB000C01B02282BD828688001F7D4206AB0F511
:101CC000803F05D16868A16820F40030084368604F
:101CD000D4E908010843696821F474110843686075
:101CE000C6F86090FFF7E2F8044606E015E000BF92
:101CF000FFF7DCF8001B022809D828688001F7D517
:101D00000BE000BFFFF7D2F8001B022802D9032026
:101D1000BDE8F88F28688001F4D40020F8E701209E
:101D2000F6E70000001002400000424280044242F8
:101D3000CC0000200070004080B1017C01290FD050
:101D400001210174022242740268136823F0010326
:101D500013604174002101740846704701207047E8
:101D6000022070477047704710B50446006801684C
:101D7000C90716D04168C90713D0406840072046FC
:101D800007D5FFF7F0FF21686FF0040048600420DA
:101D900002E0FFF7E7FF0120607421686FF00100A7
:101DA000486010BD80B1017C01290FD00121017470
:101DB000022242740268136843F001031360417405
:101DC00000210174084670470120704702207047C7
:101DD00070B5040003D0607C002610B105E001203E
:101DE00070BD2674204600F043F80220607420463F
:101DF00000F01AF9042578BB204601F096FB58BB89
:101E00002068416821F007014160A06820B11748AF
:101E1000016821F0010101601448001F0168A268F7
:101E200021F46071114301606068411C04D10120FC
:101E3000FFF71AFC80B1401E21688A6822F00F0269
:101E400042EA10428A602168CA6860F30F02CA60E1
:101E5000204601F085FB08B16574C0E7E6730120F8
:101E60006073A0736074002070BD0000306C00408F
:101E700008B500680D49884217D1FFF7EFFB0C4801
:101E8000C16941F00061C161C0690A4900F00060A8
:101E9000009001200860002211460320FFF75CF942
:101EA000BDE808400320FFF74BB908BD00280040FB
:101EB000001002403C0442422DE9F0410D4604006E
:101EC0003BD0C5B3207C01283AD04FF0010884F8FC
:101ED000108002206074E87872B301F01DFBE0739B
:101EE000687801F019FB6073A87801F015FBA07306
:101EF000C2B2617BE07B01F0D5FC207328702046E4
:101F000001F071FB4FF46161B0FBF1F1002518297C
:101F10002DD91822B1FBF2F1A1EB011101EB410126
:101F2000C1EB011100EBC1163146204601F0F9FC6E
:101F30000427C8B90BE000E004E00120BDE8F0810F
:101F40000220FBE7E07368786073A878CFE720464B
:101F500001F042FB411C0AD0B04208D206490144BC
:101F6000204601F0CAFC10B167742574E5E784F8D7
:101F7000118025740020E1E7805101002DE9F04136
:101F80000D46040024D01DB3207C012823D04FF03F
:101F9000010884F81080022060742878EAB101F00A
:101FA000BBFA4FF4616100FB01F6687801F0B4FA06
:101FB000C0EB001006EB8006A87801F0ADFA3518EA
:101FC0002946204601F0ADFC0026042710BB0FE097
:101FD0000120BDE8F0810220FBE74FF46161484336
:101FE0006978C1EB011100EB8100A9784518E7E79A
:101FF0002068416821F005014160204601F0ECFABB
:10200000411C0AD0A84208D206490144204601F0EA
:1020100074FC10B167742674DAE784F811802674B2
:102020000020D6E78051010070B504000AD0206876
:10203000416821F008014160FEF738FF05464FF482
:102040007A7608E0012070BDFEF730FF401BB042F9
:1020500001D9032070BD206840680007F4D5002036
:1020600070BDFEB5044603200D4684F83400606C54
:10207000032820D0B5F5805F1DD0B5F5006F05D0E1
:1020800045B1A06B40F00060A06309E0204602F07B
:10209000AAFB02E0204602F07FFBA16B0143A16393
:1020A000A06B012658B1216840F2FF50886384F884
:1020B00034600120FEBDA06B40F08050E4E7211D9C
:1020C000D4E905700EC90095CDE90170206801F0D2
:1020D00021FF84F834600020FEBDF0B5426E120E80
:1020E00093090B70C2F383034B7002F003028A70F2
:1020F000426E120CCA70B0F86420120A0A7190F88D
:1021000064204A71826E4FF6FF73120E03EA0212C8
:10211000CA80826ECB88C2F3074243EA1213CB8097
:1021200002F00F020A72B0F86820C2F30722D30946
:102130004B72C2F380138B72C2F34013CB72C2F3A3
:1021400000130B7300264E73446C4FF40077012389
:102150006CB1012C43D0026840F2FF519163816B56
:1021600041F08051816380F834300120F0BD920746
:10217000120D0A6190F868200C6944EA82020A6133
:10218000C26E0C69120E44EA92140C61C2F3C204CE
:102190000C7502F007024A75C26EC2F30742540979
:1021A0008C75C2F38204CC759207520F0A76B0F890
:1021B0006C20C2F307240A7E42EAD4120A760A6926
:1021C000521C42650D7EAD1CAA4042650D7A03FA91
:1021D00005F585656D0A6A43C0E917271CE090F88C
:1021E00068209206920A0A61C26E0C69120E44EAD5
:1021F00002220A61C26E0C69C2F3074214430C61E9
:10220000B0F86C20C2F307240A69521C4FEA8222FC
:102210004265C0E916720766C4F3801201F8192FEF
:102220004FEA84624FEA52624A7010F86C2F4C7881
:1022300044EAD2144C7002F07F028A7042684FEA7E
:1022400012624FEAD214CC70C2F341140C71C2F383
:1022500082044C714FEA82724FEA12728A714268AC
:102260008C79C2F3074244EA92148C71C2F3401491
:10227000CC710E7202F001024A728288C2F3072208
:102280004FEAD2148C72C2F38014CC72C2F34014A1
:102290000C73C2F300144C73C2F381048C7302F00C
:1022A0000302CA7300794FEA500008744B744FF070
:1022B0000000F0BD426C0A60826C4A60C26C8A60A9
:1022C000026DCA60426D0A61826D4A61C26D8A61A7
:1022D000006EC8610020704770B50446B0F8500029
:1022E00000250104206801F094FF18B1A16B01439F
:1022F000A16304E00021206801F006FE0546C5F355
:10230000432070BD70B5040004D094F8340000255B
:1023100010B105E0012070BD2577204600F038F8A7
:10232000032084F83400204600F008F8A5632563F4
:10233000012084F83400002070BD0000FEB50025A7
:102340000446C3200095CDE901502B462A46294674
:10235000206801F0DFFD0D4E46F8A05F206801F017
:10236000EBFD012535600220FEF790FC204602F0CF
:10237000C2F920B9204602F04BF9002805D084F8B4
:102380003450A16B0143A1630120FEBD0000304227
:1023900030B50068104985B088421BD10F484169AB
:1023A00041F4806141614069022400F4806004903E
:1023B0004FF4F850CDE90004032569460395084819
:1023C000FEF776FC0420CDE9000469460395054834
:1023D000FEF76EFC05B030BD0080014000100240E9
:1023E00000100140001401402DE9F04F87B09A46DB
:1023F00017460E460446DDF840B0FEF757FD009044
:102400003EB194F83400012807D0A06B40F0005092
:102410000FE0A06B40F000600BE04FF00008C4F844
:102420003880E06D07EB0A01814204D9A06B40F0CF
:102430000070A0637DE0032084F834002068C0F8B9
:102440002C80606C012800D07F024FF4007120685E
:1024500001F0C2FD40F2FF59012530B12268C2F8F7
:102460003890A16B0143A16361E04FF0FF30019010
:102470004FEA4A200290902003900220CDE9040800
:10248000069501A9206801F029FDBAF1010F06D9CE
:10249000022020633946206801F02CFE04E0256309
:1024A0003946206801F03FFE0028D7D140F22A3893
:1024B0002068416B11EA080F22D1406B000409D556
:1024C0000027206801F03CFD46F827007F1C082FFC
:1024D000F7D32036BBF1000F05D0FEF7E7FC0099DB
:1024E000411A5945E4D32168C1F83890A06B40F0F7
:1024F0000040A06384F83450032007B0BDE8F08F9B
:10250000416BC90509D5BAF1010F06D9616C0329E0
:1025100003D001F0AFFE0028A0D12068416B09076D
:1025200009D5C0F83890A06B40F0080028E084F886
:1025300034500120E1E7416B890705D5C0F8389098
:10254000A06B40F002001BE0416B89061AD5C0F871
:102550003890A06B40F0200012E000BF01F0F0FCCA
:1025600001C6BBF1000F05D0FEF7A0FC0099411A8F
:10257000594507D32168C1F83890A06B40F000405E
:10258000A063D4E72068416B8902E7D42168C1F8D1
:10259000389084F834500020AFE700002DE9F04F68
:1025A00087B09A4616460D460446FEF77FFC069015
:1025B0003DB194F83400012807D0A06B40F00050E2
:1025C0000DE0A06B40F0006009E00020A063E26D28
:1025D00006EB0A01914204D9A06B40F00070A063A1
:1025E00090E0032184F8341021688146C862606C51
:1025F000012800D076024FF40071206801F0ECFC55
:1026000040F2FF58012730B12268C2F83880A16B30
:102610000143A16317E0BAF1010F06D9202020631E
:102620003146206801F040FE05E01020206331466D
:10263000206801F052FE060008D02168C1F83880F9
:10264000A06B3043A06384F834705BE04FF0FF3040
:1026500000904FEA4A200190902002904846CDE930
:102660000407CDF80C90B9466946206801F036FCA5
:1026700040F21A3B22E0406B40040AD55FF00007AD
:1026800005EB8701206801F06EFC7F1C082FF7D353
:102690002035109830B1FEF709FC0699411A1098C0
:1026A00081420BD32168C1F83880A06B3043A0630E
:1026B00084F83490032007B0BDE8F08F2068416BA8
:1026C00011EA0B0FD7D0416BC9050FD5BAF1010F35
:1026D0000CD9616C032909D001F0CCFD30B122681E
:1026E000C2F83880A16B0143A16309E02068416B07
:1026F000090709D5C0F83880A06B40F0080014E045
:1027000084F834900120D6E7416B890705D5C0F8DD
:102710003880A06B40F0020007E0416BC0F83880C1
:10272000C90604D5A06B40F01000A063E8E784F868
:1027300034900020BFE74FF0E0210428086903D05F
:1027400020F004000861704740F00400FAE7704789
:1027500010B5401EB0F1807F01D3012010BD4FF0B5
:10276000E02460610F21601700F039FC0020A061B7
:1027700007202061002010BD10B5FFF7E8FF10BD55
:102780007047704730B590F83C20012A20D00122D4
:1027900080F83C20022380F83D3003685C6824F018
:1027A00070045C6003685C680D682C435C600368BF
:1027B0009C6824F080049C6003689C6849680C4312
:1027C0009C6080F83D20002180F83C10084630BD18
:1027D000022030BD10B5040003D094F83D0010B1C4
:1027E00007E0012010BD002084F83C00204600F0E6
:1027F0000DF8022084F83D00211D206802F06CF9DC
:10280000012084F83D00002010BD000008B50168DB
:102810001048B1F1804F14D00F4A914219D1C169CB
:1028200041F00201C161C069002200F00200009085
:1028300011461D20FEF790FCBDE808401D20FEF764
:102840007FBCC16941F00101C161C06900F00100B4
:10285000009008BD00100240000400400168CA68F2
:1028600042F00102CA600068016841F001010160A4
:10287000002070470168CA6822F00102CA6000683F
:10288000016A41F21112114207D1016A92101142FC
:1028900003D1016821F0010101600020704770B58B
:1028A000044690F83C00012817D0012584F83C50DC
:1028B000022084F83D002068826822F0770222F42A
:1028C0007F4282600868502837D00DDC202859D01C
:1028D00005DC88B3102841D151E0022070BD3028BA
:1028E00053D040283AD13FE060282ED070280BD03A
:1028F000B0F5805F03D0B0F5005F2FD110E0206805
:10290000816821F0070115E0CB68D1E90121206839
:1029100002F028F92168886840F0770088601DE09F
:10292000CB68D1E90121206802F01CF92068816898
:1029300041F48041816011E01EE0CA684968206866
:1029400002F022F95021206806E0CA684968206830
:1029500002F02BF96021206802F00EF984F83D5056
:10296000002084F83C0070BDCA684968206802F005
:102970000BF940212068EFE700212068ECE71021E7
:102980002068E9E720212068E6E730212068E3E7B6
:10299000704770B50446006801694FF00005C943EF
:1029A000890715D4C168C943890711D4E91E01619B
:1029B00001202077206880698007204602D0FFF739
:1029C000E7FF04E000F098F8204600F096F825773D
:1029D00020680169C943490717D4C168C943490739
:1029E00013D46FF004010161022020772068806910
:1029F00010F4407F204602D0FFF7CAFF04E000F049
:102A00007BF8204600F079F8257720680169C943F2
:102A1000090716D4C168C943090712D46FF0080129
:102A20000161042020772068C0698007204602D019
:102A3000FFF7AEFF04E000F05FF8204600F05DF81D
:102A4000257720680169C943C90617D4C168C943FD
:102A5000C90613D46FF010010161082020772068A7
:102A6000C06910F4407F204602D0FFF791FF04E0D8
:102A700000F042F8204600F040F825772068016910
:102A8000C943C90708D1C168C943C90704D1891E10
:102A90000161204600F032F820680169C943090647
:102AA00009D4C168C943090605D46FF080010161EA
:102AB0002046FFF765FE20680169C943490609D42D
:102AC000C168C943490605D46FF040010161204641
:102AD00000F01EF820680169C94389060BD4C1685B
:102AE000C943890607D46FF0200101612046BDE883
:102AF0007040FFF746BE70BD7047704700680349DD
:102B0000884201D102F0A2B87047000000040040E2
:102B10007047FEE7F0B50023041E1F464FF0300655
:102B200004D00A258AB113461A4623E02AB90E704A
:102B30004F70F0BDCE545B1CDBB29342FAD3CF543E
:102B4000F0BDB4FBF5F45B1CDBB2002CF9D1EBE774
:102B500058B1B0FBF5F405FB1404B0FBF5F001EB44
:102B6000030C30340CF8014C02E0CC1804F8016C72
:102B70005B1EDBB2002BEBD18F54F0BD0146012070
:102B8000CA0705D0401C4908C0B20328F8D300206A
:102B90007047000002480021017041708170704749
:102BA0001000002070B51148017801291DD10025C1
:102BB0000570042000F01CF8030016D00B4CA41C78
:102BC00020781870207820B16078FFF7D7FF588000
:102BD00004E0A078FFF7D2FF58806570BDE8704030
:102BE00000211A46012000F0A5B970BD0E0000209A
:102BF000002801D004F0E6BE704700003EB5124840
:102C0000002410498460C4604461016001250561AD
:102C10004FF460214460C161FDF7F6FE18B1F52163
:102C20000A4803F0E9FD0095CDE9015469460648DC
:102C3000FDF7F4FD002803D0FF21044803F0DCFD7C
:102C40003EBD000000240140A4080020C42E00085E
:102C500010B504490448FDF7BAFD0249491E087041
:102C600010BD0000750000209C7D0008F0B52948CB
:102C700085B0816941F010018161816901F0100125
:102C80000491816941F020018161816901F0200195
:102C90000491816941F004018161816901F00401BD
:102CA0000491816941F00801816180691A4E00F048
:102CB00008000490002230213046FEF7F1F8174F4B
:102CC0000022F8213846FEF7EBF80720009000209C
:102CD0000190029069463046FDF7EAFF302001245A
:102CE00002258DE83100694630460394FDF7E0FF88
:102CF00038208DE83100694638460395FDF7D8FF46
:102D0000C0208DE83100694638460394FDF7D0FFB6
:102D100005B0F0BD0010024000100140000C014061
:102D20000E4810B50C4901600D49416000214FF477
:102D300080428160C0E9031241618161C161016229
:102D4000FEF7BAF8002806D0BDE8104040F2131193
:102D5000044803F051BD10BD00580040D4080020C5
:102D6000A0860100C42E00087CB51C481A49002426
:102D700001604FF0FF31C0E90114FFF729F820B1DD
:102D80004FF49771164803F037FD8DF80440012584
:102D90008DF805408DF806502A4601A90F48FFF727
:102DA000EDF820B140F239110D4803F025FD8DF802
:102DB00000508DF801508DF802508DF8034001222B
:102DC00069460648FFF778F8002804D040F243111E
:102DD000034803F011FD7CBD0028004028090020B5
:102DE000C42E000810B5194886B04FF0804101602C
:102DF00040F2CF210024C0E9011441F28831C0E93A
:102E000003148461FFF7E6FC20B140F2651110481D
:102E100003F0F2FC4FF48050009069460B48FFF736
:102E20003EFD20B140F26B11094803F0E5FC04942B
:102E300004A906480594FFF7A5FC002804D04FF428
:102E4000B971034803F0D8FC06B010BDC0090020DA
:102E5000C42E000810B51A4886B01849016041F622
:102E60001F410024C0E9011440F2E731C0E9031416
:102E70008461FFF7AFFC20B14FF4C37111A003F0E0
:102E8000BBFC4FF48050009069460D48FFF707FDEA
:102E900020B14FF4C6710BA003F0AEFC049404A95A
:102EA00007480594FFF76EFC002804D040F2931108
:102EB00004A003F0A1FC06B010BD00000004004017
:102EC000000A00202E2E2F5372632F6D61696E2E23
:102ED0006300000010B500220849094802F0F3F928
:102EE0000849074802F0F1FB0749054802F034F8A9
:102EF000BDE81040024802F035BC00007C00002014
:102F0000400A0020B0010020B000002010B500F001
:102F10004BF800F04BFBFFF73DFE01F06FFEFDF7B5
:102F200033FB00F01FFA01F052FEBDE8104000F044
:102F30002BBFFEE770B5044615460E460C20FFF782
:102F400057FE002811D0047046800021074AC0E9CE
:102F5000015152F8241019B942F8240004E0114636
:102F60008A68002AFBD18860012070BD140000200F
:102F700070B50C4E002400BF56F8240060B1012C3F
:102F800003D1706801F052FE0546022D04D0032DD6
:102F900002D0204600F016F8641CE4B2022CEBD3F9
:102FA00070BD00001400002000200549024600BF4B
:102FB00041F82020401CC0B20228F9D3704700001D
:102FC00014000020044A014652F82100836842F8A8
:102FD0002130FDF71FBC00001400002070470907D6
:102FE000090E002806DA00F00F0000F1E02080F85A
:102FF000141D704700F1E02080F8001470472DE99F
:10300000FC5F4FF000080446ADF80480ADF8008086
:1030100048F60F7B4FF002094FF4806692E1BDF84D
:10302000041011F00F072BD030F82710ADF8001066
:10303000BDF80010090478D530F8272040F68F71CC
:103040000A4020F8272004EB471595F8320205F5D1
:103050000A750028206869D0297830F821205204A8
:103060007DD5B0F8503009EBC101194406EB4101A0
:10307000415AC1F309015FEA010A71D0EA88D0E040
:10308000BDF80410C9062AD4018801EA0B010180A9
:10309000206804F12805B0F850202B7809EBC30113
:1030A000114406EB4101405AC0F309006064E16B32
:1030B0000844E06300212046FEF79BF894F82400C2
:1030C0000028ABD0A8690028A8D194F82400216872
:1030D00040F08000A1F84C0084F8248032E101889F
:1030E00004F50A75ADF80010BDF8001009051ED5ED
:1030F000B0F850302978062202EBC101194406EBE2
:103100004101405A04F22C41C0F30903EB61AA8843
:10311000206803F019F92068018840F68F72114089
:1031200001802046FEF767FA0CE1A0E055E0BDF80B
:1031300000100904D2D5028840F68F710A4002803F
:103140002068B0F850302978062202EBC1011944FA
:1031500006EB4101405A83059B0DEB6101E051E014
:1031600063E008D0AA886969206803F0EDF8E9698E
:1031700068690844686100212046FEF741F820682C
:10318000B0F85010891D06EB4101014428693E2822
:103190000CD9C0F34F12C00601D1521E92B24FF6A5
:1031A000FF7000EA822040F4004009E0C0F34F02C3
:1031B000C00701D0521C92B24FF6FF7000EA822085
:1031C0000860216808884BF68F72104080F44050E8
:1031D00048F2800210430880B4E0B0F850202B7809
:1031E000062101EBC301114406EB4101415AC1F331
:1031F00009015FEA010A24D0AA885346696903F0ED
:10320000A3F81EE0B0F85020062303EBC1011144DF
:1032100006EB4101415AC1F309015FEA010A04D0FA
:103220002A895346696903F08FF82978206830F8B5
:10323000213048F68F72134048F2C002134320F841
:103240002130E96901EB0A00E861696901EB0A02D2
:103250006A61AB6913B12869504504D929782046C1
:10326000FDF7CEFF03E029782046FEF73FF8BDF8D2
:103270000000000666D5206804EB471530F82710DB
:1032800001EA0B0120F8271095F8320028350028B4
:10329000206812D0297830F82120B0F8503052063A
:1032A0001ED509EBC101194406EB4101405A8305C3
:1032B0009B0DEB6124D0EA881EE0B0F850302A78EC
:1032C00009EBC201194406EB4101405A83059B0DED
:1032D000EB6121D0AA886969206803F09FF81BE0A0
:1032E000062202EBC101194406EB4101405A830555
:1032F0009B0DEB6104D02A896969206803F08EF880
:103300002978206830F8212048F68F731A404CF253
:1033100080031A4320F821202068B0F850202B7831
:1033200009EBC301114406EB4101405AC0F3090007
:10333000E86169690A186A612978AB69204663B156
:10334000FEF716F82068B0F84410ADF80410090430
:103350003FF565AE0020BDE8FC9FFDF74AFFF1E7B1
:103360007047000003480021017040F2CA6181806B
:1033700070470000520000201FB50020009001900F
:1033800002900390204801884288808811440844B4
:103390000321B0FBF1F01C4980B2891F4880FCF783
:1033A000BCFF1A4A1A4BFCF72FFFFCF7C3FF80B291
:1033B0000A21B0FBF1F201FB1202052A04D3B0FB93
:1033C000F1F0401C84B201E0B0FBF1F411A16846B9
:1033D000FCF711FF6420B4FBF0F130318DF80010E0
:1033E0002E218DF80110B4FBF0F100FB11400022FA
:1033F0000DF10201FFF78EFB08A16846FCF7E8FE1D
:10340000684602F04DFF1FBD58000020986E1283E1
:10341000C0CAE93F566F6C74203D20005600000082
:103420000B4810B58088FCF778FF0A4A0A4BFCF776
:10343000EBFEFCF77FFF80B20A21B0FBF1F201FB4B
:103440001202B0FBF1F0052A01D3401C80B210BD7E
:1034500052000020986E1283C0CAE93F70B51A4826
:1034600040F22631408848434FF47A71B0FBF1F0C6
:103470000A21B0FBF1F201FB1202B0FBF1F0052AC8
:1034800000D3401C85B20520FFF7B2FB040018D022
:103490000020206020716426B5FBF6F00022214652
:1034A000FFF738FB09A12046FCF792FE2046FCF707
:1034B0009BFE0119B5FBF6F006FB10500222FFF748
:1034C00029FB204670BD0000520000202E000000A5
:1034D00010B50D4A941F217822F81100491CC8B27A
:1034E000207003280AD3FFF747FF00202070024610
:1034F0000121BDE810400846FFF71CBDBDE81040A3
:103500000020FDF7A5B80000580000200149888080
:103510007047000052000020010901EB810100F01A
:103520000F0000EB4100C0B2704770B50446FDF7D4
:10353000BDFC05464FF47A7606E0FDF7B7FC401B6C
:10354000B04201D9032070BD206840688006F4D5E0
:103550002068416841F010014160002070BD00000A
:1035600070B504460068416821F010014160FDF724
:103570009DFC05464FF47A7607E000BFFDF796FC08
:10358000401BB04201D9032070BD2068406880060E
:10359000F4D5002070BD000010B50348FEF7E4FB31
:1035A000BDE8104000F070BB28090020074800214A
:1035B000074AC160018281741160516091600549C0
:1035C000416030210170012000F01EB81C00002075
:1035D000FC01002000A2FF4E0168086A496A89B216
:1035E00041EA00407047006881698AB2C1698BB2C4
:1035F000816989B28A4203D0C06961F31F40704774
:1036000043EA0240704700000128034801D0FEF75A
:1036100093BBFEF7C7BB00002809002070B5164D0C
:103620002868002827D02878002418B12C700020A2
:1036300001F074FB687818B16C70012001F06EFB2A
:10364000A87818B1AC70022001F068FBE87818B1D6
:10365000EC70032001F062FB287918B12C71042072
:1036600001F05CFB6879002805D06C71BDE8704002
:103670000020FCF7EDBF70BDFC010020FEB561A489
:10368000634E34CC8DE83400B0FBF6F20727B2FB72
:10369000F7F507FB15252D1DB5FBF7FC07FB1C55A2
:1036A0000D710123002440F26D156F1E09E000BF6B
:1036B00004F0030CBCF1020F0AD0A2F26D12641CDC
:1036C000A4B2BA42F4D804F00305022D05D007E0F5
:1036D000AA4202D0A2F5B772F1E71D258DF801507C
:1036E00004F2B2740C806C4602E0521B5B1CDBB22D
:1036F000E51815F8015C9542F7D90C2B01D90C3B64
:10370000DBB28B70521CCA70B0FBF6F206FB1200E3
:103710004FF46162B0FBF2F402FB1404B0FBF2F36D
:103720003C25B0FBF2F602FB1600B4FBF5F4B0FB4F
:10373000F5F2DBB24B71E4B205FB12008C71C8717B
:1037400034480278302A02D2C2F1300001E0A2F1FE
:103750003000C0B200F00305C5EB05152C4403EBA7
:1037600090008C7148710DF1FF3304E03C38887192
:103770004879401C487188793C28F7D21AE01838FB
:103780004871C878401CC8700879401C08710CE06A
:10379000641BCC70401C887004E00C38887008886A
:1037A000401C088088780C28F7D88878CC78C55CCD
:1037B000A542EDD348791828E1D2302A15D2C2B2F9
:1037C0000C2A1CD20C304871C878012801D0401E48
:1037D00006E08878012809D0401EC0B28870C05C1D
:1037E000C870087948B1401E0871FEBD0888401EA7
:1037F00008800C2088701F20F2E70620F4E70C38C0
:103800004871FEBD1F1C1F1E1F1E1F1F1E1F1E1FD7
:10381000805101001C0000202048017800293CD084
:10382000491E0170A0F10C014A68521C4A608A6866
:10383000521C8A6043781A4A01212BB15B1E13F097
:10384000FF03437000D1117083782BB15B1E13F01E
:10385000FF03837000D15170C3782BB15B1E13F04E
:10386000FF03C37000D1917003792BB15B1E13F07D
:10387000FF03037100D1D17043792BB15B1E13F0AC
:10388000FF03437100D111718379002B05D05B1EBA
:1038900013F0FF03837100D151717047280000209D
:1038A000FC010020F0B56424C1EBC1030927A50089
:1038B000072603EB01130329B3FBF7F100F5FA60C8
:1038C000114401440AD2401EB0FBF4F201EB900116
:1038D000B0FBF5F0891A0844001D08E0B0FBF4F2D3
:1038E00001EB9001B0FBF5F0891A0844801CB0FB95
:1038F000F6F106FB1100C0B2F0BD70B50D460646EC
:103900000024FFF712FE48B93168280C08623168BC
:10391000A8B248623046FFF723FE00B101242046DA
:1039200070BD70B50D4606460024FFF7FEFD48B990
:103930003168280C88613168A8B2C8613046FFF749
:103940000FFE00B10124204670BD00007CB5054685
:1039500040F2DD70ADF8000001208DF802008DF816
:1039600003008DF80400002014468DF805000A4677
:103970008DF806008DF8070069461046FFF77EFEB9
:103980009DF80200E4B20D2852D2DFE800F05107A2
:103990000D13191F252B31373D434900E00701D096
:1039A00044A142E045A140E0E00701D046A13CE04F
:1039B00047A13AE0E00701D048A136E049A134E050
:1039C000E00701D049A130E04AA12EE0E00701D094
:1039D0004AA12AE04BA128E0E00701D04BA124E056
:1039E0004CA122E0E00701D04CA11EE04DA11CE05B
:1039F000E00701D04DA118E04EA116E0E00701D08C
:103A00004EA112E04FA110E0E00701D050A10CE060
:103A100051A10AE0E00701D052A106E053A104E061
:103A2000E00701D054A100E055A12846FCF7E3FBD4
:103A30002846FCF7D9FB9DF803200A21B2FBF1F2DE
:103A4000C0B230322A549DF80320401CB2FBF1F37F
:103A500001FB1321C0B230312954600719D59DF8FC
:103A60000400072815D2DFE800F00406080A0C0E4F
:103A7000100046A10AE047A108E048A106E049A1DC
:103A800004E04AA102E04BA100E04CA12846FCF76B
:103A90009FFBA0070DD54BA12846FCF799FB2846B4
:103AA000FCF7A2FBC0B22918BDF800000022FFF706
:103AB00031F87CBD4A414E20000000004A616E751D
:103AC000617279200000000046454220000000009D
:103AD0004665627275617279200000004D41522086
:103AE000000000004D6172636820000041505220C8
:103AF00000000000417072696C2000004D415920A7
:103B0000000000004D617920000000004A554E2061
:103B1000000000004A756E65200000004A554C20E8
:103B2000000000004A756C792000000041554720D4
:103B300000000000417567757374200053455020E4
:103B40000000000053657074656D626572200000AE
:103B50004F435420000000004F63746F6265722071
:103B6000000000004E4F5620000000004E6F7665AA
:103B70006D62657220000000444543200000000093
:103B8000446563656D626572200000002053554EE8
:103B900000000000204D4F4E00000000205455450D
:103BA0000000000020574544000000002054485504
:103BB00000000000204652490000000020534154FC
:103BC000000000002C2000000148806870470000C1
:103BD0001C00002001484068704700001C000020C5
:103BE0007CB50A46044669461046FFF747FD9DF836
:103BF00005100C2903D30C39C9B2012200E00022C0
:103C000001B90C210A20B1FBF0F330332370B1FB72
:103C1000F0F300FB1311303161703A23A3709DF86B
:103C2000065030210A2D03D2E1709DF8065009E0BC
:103C3000B5FBF0F53035E5709DF80650B5FBF0F6B4
:103C400000FB16553035257163719DF807300A2B3E
:103C500003D2A1719DF8070009E0B3FBF0F1303108
:103C6000A1719DF80710B1FBF0F300FB1310303089
:103C7000E071202020720AB1502000E041206072E3
:103C80004D20A0727CBD000002480178491C0170E3
:103C9000704700002800002010B5124B124C002283
:103CA00060B101280FD0022812D0032815D00428B3
:103CB00003D15971002900D1227110BD597000291A
:103CC000FBD1227010BD99700029FBD1627010BD2C
:103CD000D9700029FBD1A27010BD19710029FBD148
:103CE000E27010BD28000020FC010020014948605E
:103CF000704700001C00002070B505460C460846C1
:103D0000FCF772FA1E4E0119B5FBF6F00022FEF721
:103D100001FF1CA12046FCF75BFAB5FBF6F006FBA1
:103D200010552046FCF760FA01194FF46166B5FBA7
:103D3000F6F00222FEF7EEFE12A12046FCF748FA4A
:103D4000B5FBF6F006FB10552046FCF74DFA0119BD
:103D50003C26B5FBF6F00222FEF7DCFE09A1204668
:103D6000FCF736FA2046FCF73FFA0119B5FBF6F0EE
:103D700006FB1050BDE870400222FEF7CBBE0000EB
:103D8000805101003A00000001490020087070478E
:103D90006000002070B5002237A1384803F0E2F837
:103DA00018B1832136A002F027FD132238A13B4829
:103DB00003F006F908B1882157E0394A2EA0111DF9
:103DC00003F06BF818B18F212DA002F015FD344CD3
:103DD000241F6068D0F8141290F80252891E01FB6B
:103DE00005F0FCF79AFA4FF0FF363246FCF77EFA00
:103DF000FCF7A0FAE060A16805FB01F0FCF78DFA82
:103E00003246FCF773FAFCF795FA206118B996214F
:103E10001BA002F0F1FC214922A003F0A1F91F49E7
:103E200029A003F09DF91D4803F022F818B19E2146
:103E300013A002F0E1FC012215A1184803F0C0F81C
:103E400018B1A2210EA002F0D7FC144803F010F81C
:103E500018B1AD210AA002F0CFFC012206A100207A
:103E600003F080F8002805D0B121BDE8704004A01F
:103E700002F0C2BC70BD0000000000004804002039
:103E80002E2E5C5372635C5344436172642E630054
:103E900066697273742E74787400000078060020CE
:103EA0006400002053544D33322053442043617248
:103EB0006420492F4F204578616D706C65207669CC
:103EC00061205350490A000053617665207468658B
:103ED00020776F726C642121210000000A68426221
:103EE0004A688262D1E902231A43D1E904310B43C3
:103EF000C16A1A4321F0F7011143C16200207047E3
:103F0000006800F00300704708B5084414300090C2
:103F1000006808BD70B50DF1100C11439CE87000ED
:103F20002343194329434268314347F6FF639A43C9
:103F30000A434260002070BD0321016000207047E9
:103F4000D0F8800070470A688260D1E901231A43E3
:103F5000D1E903310B43C1681A436FF30B011143DD
:103F6000C160002070470968C0F8801000207047C9
:103F700010B586B004463720CDE9001040200290ED
:103F8000002003904FF48060049069462046FFF7BC
:103F9000DAFF41F288323721204600F0B7F906B047
:103FA00010BD000010B504460A4886B00143292020
:103FB000CDE9001040200290002003904FF4806073
:103FC000049069462046FFF7BEFF204600F054FAF1
:103FD00006B010BD0000108010B586B00446102059
:103FE000CDE9001040200290002003904FF4806043
:103FF000049069462046FFF7A6FF41F2883210215F
:10400000204600F083F906B010BD10B586B0044616
:104010000620CDE9001040200290002003904FF4CC
:104020008060049069462046FFF78DFF41F2883298
:104030000621204600F06AF906B010BD30B585B003
:1040400000240546009401944FF480600294CDE969
:10405000034069462846FFF776FF0B484FF4FA51B4
:104060000068B0FBF1F041F288314843401E03D2B2
:104070004FF0004005B030BD696B0906F6D540F23F
:10408000FF50A8632046F5E7CC00002070B585B04E
:1040900004464FF4D570009008204026CDE9010673
:1040A0000025C001CDE9035069462046FFF74BFFCC
:1040B0000F484FF4FA510068B0FBF1F041F288313B
:1040C0004843401E02D24FF000450DE0616B11F0F5
:1040D000450FF6D0606B400702D5A663042503E0C8
:1040E000606B400600D5A66305B0284670BD000091
:1040F000CC00002010B586B004461220CDE9001097
:1041000040200290002003904FF4806004906946A4
:104110002046FFF718FF41F288321221204600F0B6
:10412000F5F806B010BD10B586B004461120CDE9F3
:10413000001040200290002003904FF48060049013
:1041400069462046FFF7FFFE41F2883211212046E2
:1041500000F0DCF806B010BD10B586B004460720AC
:10416000CDE9002040200290002003904FF48060B1
:10417000049069462046FFF7E6FE41F288320721A7
:10418000204600F0C3F806B010BD10B586B0044656
:1041900000210220CDE90010C020CDE902014FF43A
:1041A0008060049069462046FFF7CDFE204600F06F
:1041B0003BF906B010BD10B586B004460920CDE924
:1041C0000010C0200290002003904FF48060049003
:1041D00069462046FFF7B7FE204600F025F906B0F5
:1041E00010BD10B586B0044600213320CDE9001083
:1041F0004020CDE902010001049069462046FFF706
:10420000A2FE41F288323321204600F07FF806B04A
:1042100010BD10B586B004460D20CDE90010402039
:104220000290002003904FF480600490694620467D
:10423000FFF789FE41F288320D21204600F066F832
:1042400006B010BD30B585B00C46054600210320F0
:10425000CDE900104020CDE902010001049069463B
:104260002846FFF770FE22460321284600F024F975
:1042700005B030BD10B586B0044600210C20CDE954
:1042800000104020CDE9020100010490694620465B
:10429000FFF759FE034A0C21204600F037F806B01C
:1042A00010BD000000E1F50510B586B004461920E8
:1042B000CDE9001040200290002003904FF4806070
:1042C000049069462046FFF73EFE41F288321921EC
:1042D000204600F01BF806B010BD10B586B00446AD
:1042E0001820CDE9001040200290002003904FF4E8
:1042F0008060049069462046FFF725FE41F288322F
:104300001821204600F002F806B010BD444B10B54D
:104310001B684FF4FA54B3FBF4F353435B1E02D211
:104320004FF0004010BD426B12F0450FF6D0426BCB
:10433000520703D504218163084610BD426BD207A2
:1043400002D00121816303E00269D2B28A4201D026
:10435000012010BD40F2FF5181630021FFF7D4FD21
:104360003049084201D1002010BD002802DA4FF088
:10437000007010BD410001D5402010BD810001D565
:10438000802010BDC10002D54FF4807010BD010126
:1043900002D54FF4007010BD410102D54FF480608A
:1043A00010BDC10102D54FF4006010BD010202D55D
:1043B0004FF4805010BD410202D54FF4005010BDA3
:1043C000810202D54FF4804010BDC10202D54FF4E6
:1043D000004010BD410302D54FF4003010BD8103F1
:1043E00002D54FF4802010BDC10302D54FF4002048
:1043F00010BD010402D54FF4801010BD410402D558
:104400004FF4001010BD810402D54FF4800010BDA0
:10441000000702D54FF4000010BD4FF4803010BDEE
:10442000CC00002008E0FFFD12494FF4FA52096861
:10443000B1FBF2F141F288325143491E02D24FF0F2
:1044400000407047426B12F0450FF6D0416B4907B0
:1044500003D50421816308467047416BC90703D027
:10446000012181630846704740F2FF5181630020BB
:1044700070470000CC0000200E494FF4FA52096842
:10448000B1FBF2F141F288325143491E02D24FF0A2
:1044900000407047426B12F0450FF6D0416B490760
:1044A00003D5042181630846704740F2FF518163C0
:1044B00000207047CC0000201F4B10B51B684FF444
:1044C000FA54B3FBF4F341F2883463435B1E02D227
:1044D0004FF0004010BD446B14F0450FF6D0436B15
:1044E0005B0703D504218163084610BD436BDB07DE
:1044F00002D00121816303E00369DBB28B4201D06A
:10450000012010BD40F2FF5181630021FFF7FCFC48
:1045100010F4604F04D0410406D54FF4005010BD94
:10452000000C1080002010BD000402D54FF4805014
:1045300010BD4FF4803010BDCC0000202DE9F04FAD
:1045400089B00E460446FCF7B1FC00258346009571
:1045500001952F4608212068FFF73EFD002834D141
:10456000B4F8500001042068FFF702FD00282CD1A8
:10457000401E4FF00808CDE9020830204FF0020934
:10458000CDE904090120CDE9067002A92068FFF7F2
:10459000A5FC2068FFF725FE002816D1EA4640F268
:1045A0002A472068416B394212D1416B890204D5F8
:1045B000FFF7C6FC4AF825006D1CFCF777FCA0EB62
:1045C0000B00401CEDD14FF0004009B0BDE8F08F6A
:1045D000416B090703D5C0F838800820F5E7416B27
:1045E000890703D5C0F838900220EEE7416B8906B1
:1045F00003D5202181630846E7E740F2FF5181633C
:10460000009800BA7060019800BA30600020DCE7C2
:1046100010B590B004460120ADF838002068FFF7CF
:104620006FFC002864D0606C032842D02068FFF73C
:10463000ACFD00285AD100212068FFF765FC6067B7
:1046400004212068FFF760FCA06708212068FFF7BD
:104650005BFCE0670C212068FFF756FCC4F8800083
:10466000606C032825D00EA92068FFF7EBFD002819
:104670003CD1606C03281CD0BDF8380020650104D3
:104680002068FFF798FD002830D100212068FFF74F
:104690003BFC606604212068FFF736FCA066082119
:1046A0002068FFF731FCE0660C212068FFF72CFC46
:1046B000206704212068FFF727FC000DE06403A9B0
:1046C0002046FDF70AFDB4F85000002302042068DC
:1046D000FFF742FD002809D104F1100007C88DE85A
:1046E000070094E80F00FFF715FC002010B010BD84
:1046F0004FF08060FAE72DE9F84300250446009565
:104700000068FFF79BFC00281AD12068FFF7BEFC69
:104710004FF080784FF6FF76D8B14FF08057A56400
:104720000098411C0091B0421AD000212068FFF788
:104730001FFC20B900212068FFF734FC10B1384677
:10474000BDE8F88300212068FFF7DEFBC00FE7D04B
:104750001FE00127A7640098411C0091B04201D1DD
:104760004046EDE700212068FFF702FC0028E7D172
:104770004FF080412068FFF715FC0028E0D10021B0
:104780002068FFF7C1FBC10FE5D0400001D5676489
:1047900000E065640020D3E71CB5044600200090CB
:1047A000019000212068FFF7AFFB800102D54FF494
:1047B00000601CBD69462046FFF7C0FE0028F8D106
:1047C0000198C0030CD5B4F8500001042068FFF72D
:1047D000CFFB0028EDD100212068FFF716FC1CBD9F
:1047E0004FF080601CBD1CB5044600200090019075
:1047F00000212068FFF788FB800102D54FF400609C
:104800001CBD69462046FFF799FE0028F8D10198A3
:1048100040030CD5B4F8500001042068FFF7A8FB52
:104820000028EDD102212068FFF7EFFB1CBD4FF0FF
:1048300080601CBD10B5064C01202070FBF740FFC6
:1048400018B9207820F001002070207810BD0000F9
:10485000E801002010B5124888B014460078C0075F
:1048600002D0032008B010BDB9B1012905D002293A
:1048700008D003290CD00420F4E76846FBF70EFFAC
:10488000069809E06846FBF709FF0798208004E0D6
:104890006846FBF703FF079820600020E2E700006E
:1048A000E80100202DE9F0411E4617460846012583
:1048B000094C0A4B32463946FBF71CFF28B109E088
:1048C000641E02D20120BDE8F081FBF7EDFE002856
:1048D000F6D100252846F6E7A086010000E1F5059F
:1048E00010B5064C01202070FBF7DEFE18B92078C9
:1048F00020F001002070207810BD0000E8010020A9
:104900002DE9F0411E46174608460125094C0A4B81
:1049100032463946FBF7FEFE28B109E0641E02D29A
:104920000120BDE8F081FBF7BFFE0028F6D100258D
:104930002846F6E7A086010000E1F5057047000073
:1049400010B50346002108460BE000BF00EB8000D5
:104950004000A2F13004092C07D83038491C10441B
:10496000C9B25A5C002AF1D110BD002010BD30B58B
:1049700030B129B1002308E0C45CCD5CAC4201D069
:10498000012030BD1CB15B1CDBB29342F4D300208C
:1049900030BD70B50C46050015D024B1FBF724FCE2
:1049A000A04203D22846FBF71FFC84B2002208E095
:1049B000A85CA0F16101192901D82038A854521C23
:1049C00092B2A242F4D370BD10B5FCF737FBBDE83C
:1049D0001040FDF7D1BE000030B595B00121052093
:1049E00000240090CDE902414FF48030019002256F
:1049F0000491CDE907504FF4E01009906846FDF7A7
:104A000019F818B1BD211BA001F0F6FE0F20CDE969
:104A10000A054FF48060CDE90C4002210AA80E94EB
:104A2000FCF702FF18B1CB2112A001F0E5FE132024
:104A30000F904FF480701090C001119014940FA843
:104A4000FCF77CFE18B1D5210AA001F0D5FEFCF7D9
:104A500095FF4FF47A71B0FBF1F0FDF779FE042079
:104A6000FDF769FE00221146501EFCF775FB15B0DC
:104A700030BD00002E2E2F5372632F6D61696E2E94
:104A8000630000000D48016841F0010101604168C8
:104A90000B4A1140416001680A4A114001600168F7
:104AA00021F480210160416821F4FE0141604FF44E
:104AB0001F0181600449C003086070470010024074
:104AC0000000FFF8FFFFF6FE08ED00E00148FDF7EB
:104AD00060BF0000000A0020F0B502681C4B1D4DAD
:104AE0001D4E1E4F1E4C4FF0804C984209D0A042E4
:104AF00007D0604505D0A84203D0B04201D0B842EB
:104B000004D122F0700E4A6842EA0E02984209D09F
:104B1000A04207D0604505D0A84203D0B04201D0E2
:104B2000B84203D122F44075CA682A4322F08005B6
:104B30004A692A4302608A68C2620A6882629842AD
:104B400001D0A04201D10969016301214161F0BD99
:104B5000002C01400004004000080040000C004010
:104B60000034014010B5846842EA032224F47F44F3
:104B70000A432243826010BD826822F070020A4319
:104B800042F007018160704710B5036A046A24F09F
:104B900001040462846924F0F00444EA021423F05E
:104BA0000A020A438461026210BD10B5036A23F051
:104BB000100303628369046A23F4704343EA0232F8
:104BC00024F0A00343EA01118261016210BD704725
:104BD0001CB5044600200090019006A16846FBF732
:104BE0000AFB0022204601A9FDF794FF684601F068
:104BF00057FB1CBD5445503A0000000004480021FA
:104C00000170817141708170C17001714171704793
:104C1000310000204088012804D10348817981F0C7
:104C200001018171704700003100002010B50200C1
:104C300002D0508840B901E0032010BD5068FFF752
:104C4000E9FF5068FBF7E6FD002010BD70B52F4866
:104C5000FDF710FE2E4C2F4D2F4E607858B3401E9E
:104C600010F0FF00607026D0207818B980213046FF
:104C7000FCF712F92078012803D140213046FCF7D7
:104C80000BF92078022803D120213046FCF704F9E3
:104C90002078032803D110213046FCF7FDF8207856
:104CA000042803D108212846FCF7F6F8BDE8704037
:104CB0001648FDF7D3BD207820B900228021304668
:104CC000FCF7EEF82078012804D10022402130467C
:104CD000FCF7E6F82078022804D100222021304693
:104CE000FCF7DEF82078032804D10022102130469A
:104CF000FCF7D6F82078042806D12846BDE8704095
:104D000000220821FCF7CCB870BD0000000A00208A
:104D10002F00002000100140000C014070B5044637
:104D20002248234B2044234D417801290DD00029EE
:104D30003BD1012141703CB3012C28D0022C2AD058
:104D4000032C2BD0042C2CD012E00021417044B154
:104D5000012C08D0022C11D0032C11D0042C11D01E
:104D600006E0002211E0002212E000BFFCF798F8F4
:104D70002046BDE870400121FEF78EBF00220BE007
:104D800000220CE000220DE00122802101E001223E
:104D900040211846EAE701222021FAE701221021EA
:104DA000F7E7012208212846E0E770BD3100002026
:104DB000000C014000100140044A1070044851707A
:104DC00009B1FDF74BBDFDF755BD00002F000020D8
:104DD000000A0020D0F8180220B10021C0F81412F7
:104DE000084670470220704770B50546D0F8184253
:104DF00000F028FBC4F80C02D5F8180248B1D5F829
:104E00001C12D4F80402CA6804F50371904700200C
:104E100070BD022070BD70B504460025812100F0F0
:104E200077FA0121204600F073FA8221204600F033
:104E30006FFAD4F8180250B1D4F81C0204F50674C5
:104E400040688047206800F093FD002020602846DD
:104E500070BD10B5D0E9864159B194F80002FF2821
:104E600007D08B6894F8012221469847FF2084F8E8
:104E70000002002010BD00000A2101800048704798
:104E8000D8000020432101800048704728010020FD
:104E90004321018000487047E40000204321018045
:104EA000004870476C0100202DE9F0410446007C69
:104EB00000254FF4007670B3402302228121204662
:104EC00000F022FB402302220121204600F01CFBBF
:104ED000082303228221204600F016FB4FF40770BE
:104EE00000F048FDC4F81802F0B10746D4F81C02DF
:104EF000006880470020C7F81402C7F81802207C19
:104F0000D7F8042290B140230121204600F00FFB86
:104F10002846BDE8F081FFE7334602228121204682
:104F200000F0F2FA3346CEE70125F1E73346EBE72E
:104F300010B5D0F8181269B1027C002AD1F8042209
:104F400005D04023012100F0F2FA002010BD4FF4FB
:104F50000073F7E7022010BD02460220002902D0AC
:104F60000020C2F81C127047D0F81802C0F80412D2
:104F700000207047D0F81802C0F81022C0F80812BC
:104F80000020704770B50646D0F8185208780C46D5
:104F900010F0600121D0202927D1E288AAB10006B3
:104FA000607807D5D6F81C128B6829469847E288A6
:104FB000294617E085F80002A07985F80102E28809
:104FC0002946304600F050F80FE0D6F81C12607801
:104FD00000228B682146984707E060780A2804D1B0
:104FE00003490122304600F059F8002070BD00004E
:104FF000D400002010B5D0F8181289B1D1F81422CD
:105000000AB1012010BD0122C1F81422B1F810220A
:1050100093B2D1F80822812100F033FB002010BDAB
:10502000022010BD10B5D0F814225268904700201D
:1050300010BD134610B50A46002100F078FA002092
:1050400010BD134610B50A46002100F01AFB0020DF
:1050500010BD10B50446802100F0EAFA2046BDE8F4
:105060001040002100F0E4BA10B50323C0F8082175
:10507000C0F8F431C0F80C2113460A46002100F0B4
:1050800056FA002010BD10B505210023C0F8F41118
:105090001A46194600F04BFA002010BD10B5022345
:1050A0008261C0F8F431C26113460A46002100F063
:1050B000E8FA002010BD10B504210023C0F8F41157
:1050C0001A46194600F0DDFA002010BD10B50A4658
:1050D000024903A000F0D4F8004810BDE4120020FB
:1050E00043444320436F6E666967000012200880C6
:1050F000004870479C00002010B50A46024903A0F2
:1051000000F0BEF8004810BDE412002043444320E4
:10511000496E746572666163650000000420088052
:10512000004870479800002010B50A46024903A0C5
:1051300000F0A6F8004810BDE412002053544D6959
:1051400063726F656C656374726F6E696373000080
:1051500010B50A46024903A000F092F8004810BDBD
:10516000E412002053544D33322056697274756135
:105170006C20436F6D506F727400000010B50A46CA
:10518000024903A000F07CF8004810BDE4120020A2
:1051900030303030303030303030314100000000BD
:1051A000F8B5044648880D46010A08294BD2DFE8C5
:1051B00001F04A0409174A4A4048D4F81012207CEA
:1051C0000A6832E0207C02260028D4F8140205D0B8
:1051D000C16A684688470146467041E0816AF8E73F
:1051E000C0B206282FD2DFE800F003080D12171C0A
:1051F000D4F81012207C4A6817E0D4F81012207CF2
:105200008A6812E0D4F81012207CCA680DE0D4F845
:105210001012207C0A6908E0D4F81012207C4A6938
:1052200003E0D4F81012207C8A6969469047014651
:1052300016E0207C38B9D4F81402416B68468847E0
:10524000F5E7207C20B129462046FFF702FFF8BD94
:10525000D4F81402016B684688470146072048705D
:10526000BDF800000028F2D0EA88002AEFD0824280
:1052700000D90246ADF800202046FFF70FFFF8BD29
:1052800070B5002300281DD00446002502E06D1CE7
:10529000EDB2641C2678002EF9D1022404EB4504FB
:1052A0001480CC545B1C0322CA5400245B1C06E00F
:1052B000CA545B1CDAB28C54521CD3B2401C027824
:1052C000002AF5D170BD10B580B1D0F8143213B1F9
:1052D0000023C0F8143209B1C0F81012012180F87F
:1052E000FC11027000F0B2F8002010BD022010BDC9
:1052F00010B50024D0F82002FBF7AAFF30B1012836
:1053000001D0022801D0022400E00124204610BD73
:1053100010B50024D0F82002FBF77AFF30B1012845
:1053200001D0022801D0022400E00124204610BD53
:105330002DE9F0411746044641B1D4F81402426900
:105340008AB394F8FC01032842D043E0D4F8F41166
:10535000002504F11400022933D1D0E902639E42F2
:1053600007D9F31A83609AB239462046FFF769FEDF
:1053700012E04068B0FBF3F103FB1101A1B99842C0
:1053800012D3D4F8F81188420ED2002211462046DA
:10539000FFF757FEC4F8F85100231A461946204675
:1053A00000F0C5F80DE012E0D4F81402C16829B18C
:1053B00094F8FC01032801D1204688472046FFF7D6
:1053C00062FE94F80002012804D184F8005201E042
:1053D000204690470020BDE8F08170B51546044690
:1053E00041B1D4F8140282693AB394F8FC0103285D
:1053F00024D025E0D4F8F41104F5827003291FD1DC
:10540000D0E902218A420BD9531A836008468342AD
:1054100000D303469AB229462046FFF70AFE0FE062
:10542000D4F81402016929B194F8FC01032801D1D0
:10543000204688472046FFF73EFE01E02046904781
:10544000002070BDD0F82002FBF726BF10B5204920
:105450000446C1F85C04C0F820121E480860082009
:105460004860022088600320C86000208861C8610D
:1054700008620846FCF718F820B14FF4977116A09F
:1054800001F0BAF90022D4F820021823114604F5DD
:105490000874FBF793FE5823002280212068FBF755
:1054A0008DFEC023002281212068FBF787FE4FF488
:1054B0008873002201212068FBF780FE4FF480737F
:1054C000002282212068FBF779FE002010BD000039
:1054D000840E0020005C00402E2E2F5372632F7527
:1054E0007362645F636F6E662E6300000A06D0F815
:1054F000200201F07F0100EB411002D590F82A0054
:10550000704790F82A02704770B51D461346002474
:10551000D0F820022A46FBF7C7FE30B1012801D09F
:10552000022801D0022400E00124204670BD10B5FD
:105530000024D0F82002FBF7D9FE30B1012801D0B9
:10554000022801D0022400E00124204610BD70B5DD
:105550000022044640231146FFF7D6FF40252B4684
:10556000002280212046C4F81051FFF7CDFF012012
:10557000256284F8FC01D4F8180228B1D4F814028A
:105580002179426820469047002070BD90F8FD11B7
:1055900080F8FC110020704710B590F8FC11032929
:1055A00004D1D0F81412C96901B18847002010BD98
:1055B00001740020704710B50024D0F82002FCF7D9
:1055C00006F830B1012801D0022801D0022400E001
:1055D0000124204610BD70B5044600F50270054652
:1055E00000F05FF80120C4F8F401B4F80E02C4F82A
:1055F000F80194F8080210F01F010AD001290DD01B
:10560000022910D000F08001204600F011F800209F
:1056100070BD2946204600F0AAF8F8E72946204642
:1056200000F08CF9F3E72946204600F019F9EEE77F
:1056300010B50024D0F82002FBF76FFE30B101282E
:1056400001D0022801D0022400E00124204610BD30
:1056500010B50024D0F82002FBF7D4FF30B10128A8
:1056600001D0022801D0022400E00124204610BD10
:1056700090F8FC1180F8FD11042180F8FC11002045
:10568000704710B50024D0F82002FBF771FE30B14E
:10569000012801D0022801D0022400E00124204684
:1056A00010BD0A7802704A7842708A78CB7802EB93
:1056B000032242800A794B7902EB032282808A79A5
:1056C000C97902EB0121C18070470246002011B167
:1056D000C2F8141270470220704710B5D0F8142297
:1056E00002241AB11268904700B90024204610BD68
:1056F00070B50E461A4D897804462970012928D8BC
:1057000094F8FC01022802D0032822D105E099B1C7
:105710000320616084F8FC0109E091B1606888426F
:105720000AD0C1B22046FFF77DFC2978616020468F
:10573000FFF7D3FF02280CD02046BDE87040FFF7EA
:10574000BABC022084F8FC0120466160FFF76AFCC5
:10575000F2E731462046BDE87040FFF77ABC000012
:10576000D000002010B5FFF773FF002010BD2DE919
:10577000F04100264B78012532460A2B43D2DFE860
:1057800003F03C584251420805422A27FFF708FD22
:1057900063E004468888C8B9C888B8B9887800F03A
:1057A0007F0794F8FC01032810D084F8FE71394675
:1057B0002046FFF700FF2046FFF77DFC1FB10220C7
:1057C00084F8FC0149E084F8FC5146E020461AE0E8
:1057D000FFF78EFF41E0CB88012B14D190F8FC310C
:1057E000022B02D0032B0ED104E08260012200F1D3
:1057F000080114E00122011D11E090F8FC21022AA9
:1058000004D0032A02D0FFF724FC26E0C560D0F8BC
:10581000041209B10321C160022200F10C01FFF75B
:105820003DFC1AE004464888012816D1C4F8045209
:105830000BE0044690F8FC01022801D00328C5D1F2
:105840004888012809D1C4F80422D4F814028268D7
:10585000204690472046FFF72EFC3046BDE8F081F9
:1058600070B50D460446287800260979C0F341102A
:10587000012806D06878A0B301281FD003283FD1A3
:1058800007E0D4F814022946826820469047002099
:1058900070BD94F8FC01022817D003282CD1688829
:1058A00028B921B1802902D02046FFF7C1FED4F8E3
:1058B0001402294682682046904713E094F8FC01C0
:1058C000022802D0032817D103E0C9B180291BD1D7
:1058D00016E06888A0B9480604D02046FFF708FD06
:1058E000E5E703E02046FFF7E6FB09E094F8FC015A
:1058F000022807D003280BD029462046FFF7A9FB32
:10590000304670BD4806FBD02046FFF791FEF7E712
:10591000080601F07F0004EB001501D5143501E005
:1059200005F582752046FFF7E1FD00B101202860F2
:10593000022229462046FFF7B1FBE1E770B5054694
:1059400090F8FC010C4603280DD1207901280AD8D3
:10595000D5F81402826828469047E08830B9284676
:10596000FFF7A9FB02E02846FFF773FB002070BD9C
:105970007047000000487047640C00202DE9F04794
:10598000CC780A7848F68F1334B1012C6DD0022CF4
:1059900008D0032C13D10BE030F822401C4044F413
:1059A00000730AE030F822401C4020F8224006E054
:1059B00030F822401C4044F4C06320F822300C78B8
:1059C00030F8245048F68F72154048F280031D438A
:1059D000254320F824508D7A48F6BF7904274BF6EA
:1059E0008F7A48F2C0044CF28006EDB30D7830F89F
:1059F00025C048F280180CEA020C4CEA080C20F88A
:105A000025C0CD88B0F850C025F0010591F8008080
:105A10000CEBC80C00EB4C0CCCF800540D89B0F822
:105A200050C025F0010591F8008007EBC8076744D6
:105A300000EB4707C7F800544D78002D0D7830F87B
:105A400025704FEA47477DD0002F05DA30F82570E2
:105A50001740374320F825700D7830F825707F0601
:105A600008D530F8257001E024E01DE017402743F9
:105A700020F825700C7830F824501540354320F874
:105A800024500C7830F8242002EA09021A4320F846
:105A900024200A7830F8221001EA0A01194320F87C
:105AA00022100020BDE8F08730F822401C4044F46A
:105AB000806382E74D78F5B18D88B0F8506025F0AD
:105AC00001050F7806EBC70600EB4606C6F8005442
:105AD0000D7830F82560760605D530F8256016403B
